{
  "_format": "hh-sol-artifact-1",
  "contractName": "MasterChefFarms",
  "sourceName": "contracts/MasterChefFarms.sol",
  "abi": [
    {
      "inputs": [
        {
          "internalType": "uint256[]",
          "name": "_protocolIds",
          "type": "uint256[]"
        },
        {
          "internalType": "address[]",
          "name": "_routers",
          "type": "address[]"
        },
        {
          "internalType": "address[]",
          "name": "_factories",
          "type": "address[]"
        },
        {
          "internalType": "address[]",
          "name": "_chefs",
          "type": "address[]"
        },
        {
          "internalType": "address",
          "name": "_platformOwner",
          "type": "address"
        }
      ],
      "stateMutability": "nonpayable",
      "type": "constructor"
    },
    {
      "anonymous": false,
      "inputs": [
        {
          "indexed": true,
          "internalType": "uint256",
          "name": "_protocolID",
          "type": "uint256"
        },
        {
          "indexed": true,
          "internalType": "uint256",
          "name": "_farmID",
          "type": "uint256"
        }
      ],
      "name": "DepositedToFarm",
      "type": "event"
    },
    {
      "anonymous": false,
      "inputs": [
        {
          "indexed": true,
          "internalType": "uint256",
          "name": "_protocolID",
          "type": "uint256"
        },
        {
          "indexed": true,
          "internalType": "uint256",
          "name": "_farmID",
          "type": "uint256"
        }
      ],
      "name": "withdrawnFromFarm",
      "type": "event"
    },
    {
      "inputs": [
        {
          "internalType": "uint256",
          "name": "_protocolId",
          "type": "uint256"
        },
        {
          "internalType": "address",
          "name": "_tokenA",
          "type": "address"
        },
        {
          "internalType": "address",
          "name": "_tokenB",
          "type": "address"
        },
        {
          "internalType": "uint256",
          "name": "_amountADesired",
          "type": "uint256"
        },
        {
          "internalType": "uint256",
          "name": "_amountBDesired",
          "type": "uint256"
        },
        {
          "internalType": "uint256",
          "name": "_amountAMin",
          "type": "uint256"
        },
        {
          "internalType": "uint256",
          "name": "_amountBMin",
          "type": "uint256"
        }
      ],
      "name": "addLiquidity",
      "outputs": [],
      "stateMutability": "nonpayable",
      "type": "function"
    },
    {
      "inputs": [
        {
          "internalType": "uint256",
          "name": "_protocolId",
          "type": "uint256"
        },
        {
          "internalType": "address",
          "name": "_token",
          "type": "address"
        },
        {
          "internalType": "uint256",
          "name": "_amountTokenDesired",
          "type": "uint256"
        },
        {
          "internalType": "uint256",
          "name": "_amountTokenMin",
          "type": "uint256"
        },
        {
          "internalType": "uint256",
          "name": "_amountETHMin",
          "type": "uint256"
        }
      ],
      "name": "addLiquidityETH",
      "outputs": [],
      "stateMutability": "nonpayable",
      "type": "function"
    },
    {
      "inputs": [
        {
          "internalType": "address",
          "name": "_tokenAddress",
          "type": "address"
        },
        {
          "internalType": "uint256",
          "name": "_amount",
          "type": "uint256"
        }
      ],
      "name": "depositFunds",
      "outputs": [],
      "stateMutability": "nonpayable",
      "type": "function"
    },
    {
      "inputs": [
        {
          "internalType": "uint256",
          "name": "_protocolId",
          "type": "uint256"
        },
        {
          "internalType": "address",
          "name": "_lpTokenAddress",
          "type": "address"
        },
        {
          "internalType": "uint256",
          "name": "_poolId",
          "type": "uint256"
        },
        {
          "internalType": "uint256",
          "name": "_amount",
          "type": "uint256"
        }
      ],
      "name": "depositToFarm",
      "outputs": [],
      "stateMutability": "nonpayable",
      "type": "function"
    },
    {
      "inputs": [
        {
          "internalType": "uint256",
          "name": "",
          "type": "uint256"
        }
      ],
      "name": "factoryAddress",
      "outputs": [
        {
          "internalType": "address",
          "name": "",
          "type": "address"
        }
      ],
      "stateMutability": "view",
      "type": "function"
    },
    {
      "inputs": [
        {
          "internalType": "uint256",
          "name": "_protocolId",
          "type": "uint256"
        },
        {
          "internalType": "uint256",
          "name": "_amountIn",
          "type": "uint256"
        },
        {
          "internalType": "address[]",
          "name": "_path",
          "type": "address[]"
        }
      ],
      "name": "getAmountsOut",
      "outputs": [
        {
          "internalType": "uint256[]",
          "name": "amounts",
          "type": "uint256[]"
        }
      ],
      "stateMutability": "view",
      "type": "function"
    },
    {
      "inputs": [],
      "name": "lastFeePercantege",
      "outputs": [
        {
          "internalType": "uint256",
          "name": "",
          "type": "uint256"
        }
      ],
      "stateMutability": "view",
      "type": "function"
    },
    {
      "inputs": [
        {
          "internalType": "uint256",
          "name": "",
          "type": "uint256"
        }
      ],
      "name": "masterchefAddress",
      "outputs": [
        {
          "internalType": "address",
          "name": "",
          "type": "address"
        }
      ],
      "stateMutability": "view",
      "type": "function"
    },
    {
      "inputs": [],
      "name": "owner",
      "outputs": [
        {
          "internalType": "address",
          "name": "",
          "type": "address"
        }
      ],
      "stateMutability": "view",
      "type": "function"
    },
    {
      "inputs": [
        {
          "internalType": "uint256",
          "name": "_protocolId",
          "type": "uint256"
        },
        {
          "internalType": "uint256",
          "name": "_poolId",
          "type": "uint256"
        }
      ],
      "name": "pendingRewards",
      "outputs": [],
      "stateMutability": "view",
      "type": "function"
    },
    {
      "inputs": [],
      "name": "platformOwner",
      "outputs": [
        {
          "internalType": "address",
          "name": "",
          "type": "address"
        }
      ],
      "stateMutability": "view",
      "type": "function"
    },
    {
      "inputs": [
        {
          "internalType": "uint256",
          "name": "_protocolId",
          "type": "uint256"
        },
        {
          "internalType": "address",
          "name": "_tokenA",
          "type": "address"
        },
        {
          "internalType": "address",
          "name": "_tokenB",
          "type": "address"
        },
        {
          "internalType": "uint256",
          "name": "_liquidity",
          "type": "uint256"
        },
        {
          "internalType": "uint256",
          "name": "_amountAMin",
          "type": "uint256"
        },
        {
          "internalType": "uint256",
          "name": "_amountBMin",
          "type": "uint256"
        }
      ],
      "name": "removeLiquidity",
      "outputs": [],
      "stateMutability": "nonpayable",
      "type": "function"
    },
    {
      "inputs": [
        {
          "internalType": "uint256",
          "name": "_protocolId",
          "type": "uint256"
        },
        {
          "internalType": "address",
          "name": "_token",
          "type": "address"
        },
        {
          "internalType": "uint256",
          "name": "_liquidity",
          "type": "uint256"
        },
        {
          "internalType": "uint256",
          "name": "_amountTokenMin",
          "type": "uint256"
        },
        {
          "internalType": "uint256",
          "name": "_amountETHMin",
          "type": "uint256"
        }
      ],
      "name": "removeLiquidityETH",
      "outputs": [],
      "stateMutability": "nonpayable",
      "type": "function"
    },
    {
      "inputs": [
        {
          "internalType": "uint256",
          "name": "",
          "type": "uint256"
        }
      ],
      "name": "routerAddress",
      "outputs": [
        {
          "internalType": "address",
          "name": "",
          "type": "address"
        }
      ],
      "stateMutability": "view",
      "type": "function"
    },
    {
      "inputs": [
        {
          "internalType": "address",
          "name": "_platformOnwer",
          "type": "address"
        }
      ],
      "name": "setPlatformOwner",
      "outputs": [],
      "stateMutability": "nonpayable",
      "type": "function"
    },
    {
      "inputs": [
        {
          "internalType": "uint256",
          "name": "_protocolId",
          "type": "uint256"
        },
        {
          "internalType": "uint256",
          "name": "_amountOutMin",
          "type": "uint256"
        },
        {
          "internalType": "address[]",
          "name": "_path",
          "type": "address[]"
        }
      ],
      "name": "swapETHforToken",
      "outputs": [],
      "stateMutability": "payable",
      "type": "function"
    },
    {
      "inputs": [
        {
          "internalType": "uint256",
          "name": "_protocolId",
          "type": "uint256"
        },
        {
          "internalType": "uint256",
          "name": "_amountIn",
          "type": "uint256"
        },
        {
          "internalType": "uint256",
          "name": "_amountOutMin",
          "type": "uint256"
        },
        {
          "internalType": "address[]",
          "name": "_path",
          "type": "address[]"
        }
      ],
      "name": "swapTokenforToken",
      "outputs": [],
      "stateMutability": "nonpayable",
      "type": "function"
    },
    {
      "inputs": [
        {
          "internalType": "uint256",
          "name": "_protocolId",
          "type": "uint256"
        },
        {
          "internalType": "uint256",
          "name": "_poolId",
          "type": "uint256"
        },
        {
          "internalType": "uint256",
          "name": "_amount",
          "type": "uint256"
        }
      ],
      "name": "withdrawFromFarm",
      "outputs": [],
      "stateMutability": "nonpayable",
      "type": "function"
    },
    {
      "inputs": [
        {
          "internalType": "address",
          "name": "_tokenAddress",
          "type": "address"
        },
        {
          "internalType": "uint256",
          "name": "_amount",
          "type": "uint256"
        }
      ],
      "name": "withdrawFunds",
      "outputs": [],
      "stateMutability": "nonpayable",
      "type": "function"
    }
  ],
  "bytecode": "0x60806040523480156200001157600080fd5b50604051620018ad380380620018ad8339810160408190526200003491620002f0565b8351855114801562000047575082518551145b801562000055575081518551145b620000a65760405162461bcd60e51b815260206004820152601b60248201527f506172616d6574657273206e6f7420657175616c206c656e6774680000000000604482015260640160405180910390fd5b60005b85518110156200021657848181518110620000c857620000c8620004a3565b6020026020010151600080888481518110620000e857620000e8620004a3565b6020026020010151815260200190815260200160002060006101000a8154816001600160a01b0302191690836001600160a01b03160217905550838181518110620001375762000137620004a3565b602002602001015160016000888481518110620001585762000158620004a3565b6020026020010151815260200190815260200160002060006101000a8154816001600160a01b0302191690836001600160a01b03160217905550828181518110620001a757620001a7620004a3565b602002602001015160026000888481518110620001c857620001c8620004a3565b6020026020010151815260200190815260200160002060006101000a8154816001600160a01b0302191690836001600160a01b03160217905550806200020e9062000479565b9050620000a9565b5060048054336001600160a01b031991821617909155600580549091166001600160a01b039290921691909117905550620004cf92505050565b80516001600160a01b03811681146200026857600080fd5b919050565b600082601f8301126200027f57600080fd5b8151602062000298620002928362000453565b62000420565b80838252828201915082860187848660051b8901011115620002b957600080fd5b60005b85811015620002e357620002d08262000250565b84529284019290840190600101620002bc565b5090979650505050505050565b600080600080600060a086880312156200030957600080fd5b85516001600160401b03808211156200032157600080fd5b818801915088601f8301126200033657600080fd5b8151602062000349620002928362000453565b8083825282820191508286018d848660051b89010111156200036a57600080fd5b600096505b848710156200038f5780518352600196909601959183019183016200036f565b50918b0151919950909350505080821115620003aa57600080fd5b620003b889838a016200026d565b95506040880151915080821115620003cf57600080fd5b620003dd89838a016200026d565b94506060880151915080821115620003f457600080fd5b5062000403888289016200026d565b925050620004146080870162000250565b90509295509295909350565b604051601f8201601f191681016001600160401b03811182821017156200044b576200044b620004b9565b604052919050565b60006001600160401b038211156200046f576200046f620004b9565b5060051b60200190565b60006000198214156200049c57634e487b7160e01b600052601160045260246000fd5b5060010190565b634e487b7160e01b600052603260045260246000fd5b634e487b7160e01b600052604160045260246000fd5b6113ce80620004df6000396000f3fe6080604052600436106101135760003560e01c80638da5cb5b116100a0578063a044032711610064578063a04403271461031a578063a66a735e14610350578063b67b122014610370578063c10753291461039d578063e1efc7a0146103bd57600080fd5b80638da5cb5b14610271578063921b004b1461029157806393a44c41146102b1578063961095c5146102c45780639a3771a3146102e457600080fd5b80633db9a65e116100e75780633db9a65e146101cd5780634df8ccb1146101f157806354daabc31461021157806358871c81146102315780635ef819ce1461025157600080fd5b80620c9fd5146101185780630b9ad4bf1461016b5780631546bb8d1461018d5780631beed26c146101ad575b600080fd5b34801561012457600080fd5b5061014e610133366004610f31565b6001602052600090815260409020546001600160a01b031681565b6040516001600160a01b0390911681526020015b60405180910390f35b34801561017757600080fd5b5061018b610186366004611190565b6103dd565b005b34801561019957600080fd5b5061018b6101a8366004611136565b61054c565b3480156101b957600080fd5b5061018b6101c8366004610fbb565b6105c3565b3480156101d957600080fd5b506101e360035481565b604051908152602001610162565b3480156101fd57600080fd5b5060055461014e906001600160a01b031681565b34801561021d57600080fd5b5061018b61022c366004610dfe565b6106ae565b34801561023d57600080fd5b5061018b61024c366004611057565b6106e7565b34801561025d57600080fd5b5061018b61026c36600461109d565b610792565b34801561027d57600080fd5b5060045461014e906001600160a01b031681565b34801561029d57600080fd5b5061018b6102ac366004610e20565b610826565b61018b6102bf3660046110e3565b6108c4565b3480156102d057600080fd5b5061018b6102df366004610f63565b610a30565b3480156102f057600080fd5b5061014e6102ff366004610f31565b6000602081905290815260409020546001600160a01b031681565b34801561032657600080fd5b5061014e610335366004610f31565b6002602052600090815260409020546001600160a01b031681565b34801561035c57600080fd5b5061018b61036b36600461101c565b610b04565b34801561037c57600080fd5b5061039061038b3660046110e3565b610c0d565b6040516101629190611273565b3480156103a957600080fd5b5061018b6103b8366004610e20565b610cac565b3480156103c957600080fd5b5061018b6103d8366004611057565b610cf6565b818160008181106103f0576103f061136c565b90506020020160208101906104059190610dfe565b6000868152602081905260409081902054905163095ea7b360e01b81526001600160a01b039182166004820152670de0b6b3a7640000602482015291169063095ea7b390604401602060405180830381600087803b15801561046657600080fd5b505af115801561047a573d6000803e3d6000fd5b505050506040513d601f19601f8201168201806040525081019061049e9190610f0f565b506000858152602081905260409020546001600160a01b03166338ed173985858585306104cd42610258611346565b6040518763ffffffff1660e01b81526004016104ee96959493929190611308565b600060405180830381600087803b15801561050857600080fd5b505af115801561051c573d6000803e3d6000fd5b505050506040513d6000823e601f3d908101601f191682016040526105449190810190610e4a565b505050505050565b60008381526002602052604090819020549051630441a3e760e41b815260048101849052602481018390526001600160a01b039091169063441a3e7090604401600060405180830381600087803b1580156105a657600080fd5b505af11580156105ba573d6000803e3d6000fd5b50505050505050565b6000878152602081905260409020546001600160a01b031663e8e33700878787878787306105f342610258611346565b60405160e08a901b6001600160e01b03191681526001600160a01b039889166004820152968816602488015260448701959095526064860193909352608485019190915260a484015290921660c482015260e481019190915261010401606060405180830381600087803b15801561066a57600080fd5b505af115801561067e573d6000803e3d6000fd5b505050506040513d601f19601f820116820180604052508101906106a29190611162565b50505050505050505050565b6005546001600160a01b031633146106c557600080fd5b600580546001600160a01b0319166001600160a01b0392909216919091179055565b6000858152602081905260409020546001600160a01b031663f305d719858585853061071542610258611346565b6040518763ffffffff1660e01b815260040161073696959493929190611238565b606060405180830381600087803b15801561075057600080fd5b505af1158015610764573d6000803e3d6000fd5b505050506040513d601f19601f820116820180604052508101906107889190611162565b5050505050505050565b60008281526002602052604090819020549051631175a1dd60e01b8152600481018390523060248201526001600160a01b0390911690631175a1dd9060440160206040518083038186803b1580156107e957600080fd5b505afa1580156107fd573d6000803e3d6000fd5b505050506040513d601f19601f820116820180604052508101906108219190610f4a565b505050565b6004546001600160a01b0316331461083d57600080fd5b6040516323b872dd60e01b8152336004820152306024820152604481018290526001600160a01b038316906323b872dd906064015b602060405180830381600087803b15801561088c57600080fd5b505af11580156108a0573d6000803e3d6000fd5b505050506040513d601f19601f820116820180604052508101906108219190610f0f565b818160008181106108d7576108d761136c565b90506020020160208101906108ec9190610dfe565b6000858152602081905260409081902054905163095ea7b360e01b81526001600160a01b039182166004820152670de0b6b3a7640000602482015291169063095ea7b390604401602060405180830381600087803b15801561094d57600080fd5b505af1158015610961573d6000803e3d6000fd5b505050506040513d601f19601f820116820180604052508101906109859190610f0f565b506000848152602081905260409020546001600160a01b031663fb3bdb41848484306109b342610258611346565b6040518663ffffffff1660e01b81526004016109d39594939291906112d1565b600060405180830381600087803b1580156109ed57600080fd5b505af1158015610a01573d6000803e3d6000fd5b505050506040513d6000823e601f3d908101601f19168201604052610a299190810190610e4a565b5050505050565b6000868152602081905260409020546001600160a01b031663baa2abde868686868630610a5f42610258611346565b60405160e089901b6001600160e01b03191681526001600160a01b039788166004820152958716602487015260448601949094526064850192909252608484015290921660a482015260c481019190915260e4016040805180830381600087803b158015610acc57600080fd5b505af1158015610ae0573d6000803e3d6000fd5b505050506040513d601f19601f8201168201806040525081019061078891906110bf565b6000848152600260205260409081902054905163095ea7b360e01b81526001600160a01b039182166004820152670de0b6b3a764000060248201529084169063095ea7b390604401602060405180830381600087803b158015610b6657600080fd5b505af1158015610b7a573d6000803e3d6000fd5b505050506040513d601f19601f82011682018060405250810190610b9e9190610f0f565b5060008481526002602052604090819020549051631c57762b60e31b815260048101849052602481018390526001600160a01b039091169063e2bbb15890604401600060405180830381600087803b158015610bf957600080fd5b505af1158015610788573d6000803e3d6000fd5b6000848152602081905260409081902054905163d06ca61f60e01b81526060916001600160a01b03169063d06ca61f90610c4f908790879087906004016112b7565b60006040518083038186803b158015610c6757600080fd5b505afa158015610c7b573d6000803e3d6000fd5b505050506040513d6000823e601f3d908101601f19168201604052610ca39190810190610e4a565b95945050505050565b6004546001600160a01b03163314610cc357600080fd5b60405163a9059cbb60e01b8152336004820152602481018290526001600160a01b0383169063a9059cbb90604401610872565b6000858152602081905260409020546001600160a01b03166302751cec8585858530610d2442610258611346565b6040518763ffffffff1660e01b8152600401610d4596959493929190611238565b6040805180830381600087803b158015610d5e57600080fd5b505af1158015610d72573d6000803e3d6000fd5b505050506040513d601f19601f820116820180604052508101906105ba91906110bf565b80356001600160a01b0381168114610dad57600080fd5b919050565b60008083601f840112610dc457600080fd5b50813567ffffffffffffffff811115610ddc57600080fd5b6020830191508360208260051b8501011115610df757600080fd5b9250929050565b600060208284031215610e1057600080fd5b610e1982610d96565b9392505050565b60008060408385031215610e3357600080fd5b610e3c83610d96565b946020939093013593505050565b60006020808385031215610e5d57600080fd5b825167ffffffffffffffff80821115610e7557600080fd5b818501915085601f830112610e8957600080fd5b815181811115610e9b57610e9b611382565b8060051b604051601f19603f83011681018181108582111715610ec057610ec0611382565b604052828152858101935084860182860187018a1015610edf57600080fd5b600095505b83861015610f02578051855260019590950194938601938601610ee4565b5098975050505050505050565b600060208284031215610f2157600080fd5b81518015158114610e1957600080fd5b600060208284031215610f4357600080fd5b5035919050565b600060208284031215610f5c57600080fd5b5051919050565b60008060008060008060c08789031215610f7c57600080fd5b86359550610f8c60208801610d96565b9450610f9a60408801610d96565b9350606087013592506080870135915060a087013590509295509295509295565b600080600080600080600060e0888a031215610fd657600080fd5b87359650610fe660208901610d96565b9550610ff460408901610d96565b969995985095966060810135965060808101359560a0820135955060c0909101359350915050565b6000806000806080858703121561103257600080fd5b8435935061104260208601610d96565b93969395505050506040820135916060013590565b600080600080600060a0868803121561106f57600080fd5b8535945061107f60208701610d96565b94979496505050506040830135926060810135926080909101359150565b600080604083850312156110b057600080fd5b50508035926020909101359150565b600080604083850312156110d257600080fd5b505080516020909101519092909150565b600080600080606085870312156110f957600080fd5b8435935060208501359250604085013567ffffffffffffffff81111561111e57600080fd5b61112a87828801610db2565b95989497509550505050565b60008060006060848603121561114b57600080fd5b505081359360208301359350604090920135919050565b60008060006060848603121561117757600080fd5b8351925060208401519150604084015190509250925092565b6000806000806000608086880312156111a857600080fd5b853594506020860135935060408601359250606086013567ffffffffffffffff8111156111d457600080fd5b6111e088828901610db2565b969995985093965092949392505050565b8183526000602080850194508260005b8581101561122d576001600160a01b0361121a83610d96565b1687529582019590820190600101611201565b509495945050505050565b6001600160a01b039687168152602081019590955260408501939093526060840191909152909216608082015260a081019190915260c00190565b6020808252825182820181905260009190848201906040850190845b818110156112ab5783518352928401929184019160010161128f565b50909695505050505050565b838152604060208201526000610ca36040830184866111f1565b8581526080602082015260006112eb6080830186886111f1565b6001600160a01b0394909416604083015250606001529392505050565b86815285602082015260a06040820152600061132860a0830186886111f1565b6001600160a01b039490941660608301525060800152949350505050565b6000821982111561136757634e487b7160e01b600052601160045260246000fd5b500190565b634e487b7160e01b600052603260045260246000fd5b634e487b7160e01b600052604160045260246000fdfea2646970667358221220c15f53e089c26f6a0a0ff825efdcd1ba7873b0d14e876aec929000ac12081cf264736f6c63430008070033",
  "linkReferences": {},
  "deployedLinkReferences": {}
}