{
  "_format": "hh-sol-artifact-1",
  "contractName": "RewardMock",
  "sourceName": "contracts/RewardMock.sol",
  "abi": [
    {
      "inputs": [
        {
          "internalType": "contract IERC20",
          "name": "_weave",
          "type": "address"
        },
        {
          "internalType": "contract IERC20",
          "name": "_busd",
          "type": "address"
        },
        {
          "internalType": "uint256",
          "name": "_endingTimeStamp",
          "type": "uint256"
        }
      ],
      "stateMutability": "nonpayable",
      "type": "constructor"
    },
    {
      "inputs": [
        {
          "internalType": "address",
          "name": "",
          "type": "address"
        }
      ],
      "name": "amountOf",
      "outputs": [
        {
          "internalType": "uint256",
          "name": "",
          "type": "uint256"
        }
      ],
      "stateMutability": "view",
      "type": "function"
    },
    {
      "inputs": [],
      "name": "approve",
      "outputs": [],
      "stateMutability": "nonpayable",
      "type": "function"
    },
    {
      "inputs": [],
      "name": "busd",
      "outputs": [
        {
          "internalType": "contract IERC20",
          "name": "",
          "type": "address"
        }
      ],
      "stateMutability": "view",
      "type": "function"
    },
    {
      "inputs": [
        {
          "internalType": "uint256",
          "name": "_amount",
          "type": "uint256"
        }
      ],
      "name": "deposit",
      "outputs": [],
      "stateMutability": "nonpayable",
      "type": "function"
    },
    {
      "inputs": [],
      "name": "getRemainingTime",
      "outputs": [
        {
          "internalType": "uint256",
          "name": "",
          "type": "uint256"
        }
      ],
      "stateMutability": "view",
      "type": "function"
    },
    {
      "inputs": [],
      "name": "weave",
      "outputs": [
        {
          "internalType": "contract IERC20",
          "name": "",
          "type": "address"
        }
      ],
      "stateMutability": "view",
      "type": "function"
    }
  ],
  "bytecode": "0x608060405234801561001057600080fd5b5060405161061738038061061783398101604081905261002f91610125565b600080546001600160a01b03199081166001600160a01b0386811691909117835560018054909216908516179055600355426004556100788161009c602090811b61033f17901c565b8060058190555061009460055461009c60201b61033f1760201c565b505050610161565b6100e5816040516024016100b291815260200190565b60408051601f198184030181529190526020810180516001600160e01b0390811663f5b1bba960e01b179091526100e816565b50565b80516a636f6e736f6c652e6c6f67602083016000808483855afa5050505050565b80516001600160a01b038116811461012057600080fd5b919050565b60008060006060848603121561013a57600080fd5b61014384610109565b925061015160208501610109565b9150604084015190509250925092565b6104a7806101706000396000f3fe608060405234801561001057600080fd5b50600436106100625760003560e01c806301608f5f1461006757806312424e3f1461009a5780633ca5b234146100a4578063b6b55f25146100cf578063efb98bcf146100e2578063f05e5cef146100ea575b600080fd5b6100876100753660046103a8565b60026020526000908152604090205481565b6040519081526020015b60405180910390f35b6100a26100fd565b005b6001546100b7906001600160a01b031681565b6040516001600160a01b039091168152602001610091565b6100a26100dd3660046103fa565b61024c565b610087610316565b6000546100b7906001600160a01b031681565b600154604051636eb1769f60e11b8152336004820152306024820152610186916001600160a01b03169063dd62ed3e906044015b60206040518083038186803b15801561014957600080fd5b505afa15801561015d573d6000803e3d6000fd5b505050506040513d601f19601f820116820180604052508101906101819190610413565b61033f565b60015460405163095ea7b360e01b8152306004820152670de0b6b3a764000060248201526001600160a01b039091169063095ea7b390604401602060405180830381600087803b1580156101d957600080fd5b505af11580156101ed573d6000803e3d6000fd5b505050506040513d601f19601f8201168201806040525081019061021191906103d8565b50600154604051636eb1769f60e11b815233600482015230602482015261024a916001600160a01b03169063dd62ed3e90604401610131565b565b3360009081526002602052604090205461026790829061042c565b3360009081526002602052604090205560035461028590829061042c565b6003556001546040516323b872dd60e01b8152336004820152306024820152604481018390526001600160a01b03909116906323b872dd90606401602060405180830381600087803b1580156102da57600080fd5b505af11580156102ee573d6000803e3d6000fd5b505050506040513d601f19601f8201168201806040525081019061031291906103d8565b5050565b600061032360055461033f565b61032c4261033f565b4260055461033a9190610444565b905090565b6103848160405160240161035591815260200190565b60408051601f198184030181529190526020810180516001600160e01b031663f5b1bba960e01b179052610387565b50565b80516a636f6e736f6c652e6c6f67602083016000808483855afa5050505050565b6000602082840312156103ba57600080fd5b81356001600160a01b03811681146103d157600080fd5b9392505050565b6000602082840312156103ea57600080fd5b815180151581146103d157600080fd5b60006020828403121561040c57600080fd5b5035919050565b60006020828403121561042557600080fd5b5051919050565b6000821982111561043f5761043f61045b565b500190565b6000828210156104565761045661045b565b500390565b634e487b7160e01b600052601160045260246000fdfea26469706673582212201f9bd93eb2260870109dc2e76100733e356937a4df377400553dea0ae04cf1ed64736f6c63430008070033",
  "linkReferences": {},
  "deployedLinkReferences": {}
}