{
  "_format": "hh-sol-artifact-1",
  "contractName": "StrategyPoly",
  "sourceName": "contracts/StrategyPoly.sol",
  "abi": [
    {
      "inputs": [
        {
          "internalType": "uint256[]",
          "name": "_protocolIds",
          "type": "uint256[]"
        },
        {
          "internalType": "address[]",
          "name": "_routers",
          "type": "address[]"
        },
        {
          "internalType": "address[]",
          "name": "_chefs",
          "type": "address[]"
        },
        {
          "internalType": "address[]",
          "name": "_rewardToken",
          "type": "address[]"
        },
        {
          "internalType": "address payable",
          "name": "_platformOwner",
          "type": "address"
        },
        {
          "internalType": "address payable",
          "name": "_referrer",
          "type": "address"
        },
        {
          "internalType": "address payable",
          "name": "_controllerWallet",
          "type": "address"
        },
        {
          "internalType": "address payable",
          "name": "_feeWallet",
          "type": "address"
        },
        {
          "internalType": "address payable",
          "name": "_charityWallet",
          "type": "address"
        },
        {
          "internalType": "address payable",
          "name": "_stakingWallet",
          "type": "address"
        },
        {
          "internalType": "address payable",
          "name": "_proWallet",
          "type": "address"
        }
      ],
      "stateMutability": "nonpayable",
      "type": "constructor"
    },
    {
      "anonymous": false,
      "inputs": [
        {
          "indexed": true,
          "internalType": "uint256",
          "name": "_protocolID",
          "type": "uint256"
        },
        {
          "indexed": true,
          "internalType": "uint256",
          "name": "_farmID",
          "type": "uint256"
        }
      ],
      "name": "DepositedToFarm",
      "type": "event"
    },
    {
      "anonymous": false,
      "inputs": [
        {
          "indexed": true,
          "internalType": "address",
          "name": "_userAddress",
          "type": "address"
        },
        {
          "indexed": true,
          "internalType": "address",
          "name": "_tokenAddress",
          "type": "address"
        },
        {
          "indexed": false,
          "internalType": "uint256",
          "name": "_amount",
          "type": "uint256"
        },
        {
          "indexed": false,
          "internalType": "uint256",
          "name": "_feeAmount",
          "type": "uint256"
        }
      ],
      "name": "ETHDeposited",
      "type": "event"
    },
    {
      "anonymous": false,
      "inputs": [
        {
          "indexed": true,
          "internalType": "address",
          "name": "userAddress",
          "type": "address"
        },
        {
          "indexed": false,
          "internalType": "uint256",
          "name": "amount",
          "type": "uint256"
        }
      ],
      "name": "FeeCollected",
      "type": "event"
    },
    {
      "anonymous": false,
      "inputs": [
        {
          "indexed": true,
          "internalType": "address",
          "name": "_userAddress",
          "type": "address"
        },
        {
          "indexed": true,
          "internalType": "address",
          "name": "_tokenAddress",
          "type": "address"
        },
        {
          "indexed": false,
          "internalType": "uint256",
          "name": "_amount",
          "type": "uint256"
        },
        {
          "indexed": false,
          "internalType": "uint256",
          "name": "_feeAmount",
          "type": "uint256"
        }
      ],
      "name": "FundsDeposited",
      "type": "event"
    },
    {
      "anonymous": false,
      "inputs": [
        {
          "indexed": true,
          "internalType": "address",
          "name": "_userAddress",
          "type": "address"
        },
        {
          "indexed": true,
          "internalType": "address",
          "name": "_tokenAddress",
          "type": "address"
        },
        {
          "indexed": false,
          "internalType": "uint256",
          "name": "_amount",
          "type": "uint256"
        }
      ],
      "name": "FundsWithdrawn",
      "type": "event"
    },
    {
      "anonymous": false,
      "inputs": [
        {
          "indexed": true,
          "internalType": "address",
          "name": "_userAddress",
          "type": "address"
        },
        {
          "indexed": false,
          "internalType": "uint256",
          "name": "_amount",
          "type": "uint256"
        }
      ],
      "name": "FundsWithdrawnETH",
      "type": "event"
    },
    {
      "anonymous": false,
      "inputs": [
        {
          "indexed": true,
          "internalType": "uint256",
          "name": "_protocolID",
          "type": "uint256"
        },
        {
          "indexed": true,
          "internalType": "uint256",
          "name": "_farmID",
          "type": "uint256"
        }
      ],
      "name": "withdrawnFromFarm",
      "type": "event"
    },
    {
      "stateMutability": "payable",
      "type": "fallback"
    },
    {
      "inputs": [
        {
          "internalType": "uint256",
          "name": "_protocolId",
          "type": "uint256"
        },
        {
          "internalType": "address",
          "name": "_tokenA",
          "type": "address"
        },
        {
          "internalType": "address",
          "name": "_tokenB",
          "type": "address"
        },
        {
          "internalType": "uint256",
          "name": "_amountADesired",
          "type": "uint256"
        },
        {
          "internalType": "uint256",
          "name": "_amountBDesired",
          "type": "uint256"
        },
        {
          "internalType": "uint256",
          "name": "_amountAMin",
          "type": "uint256"
        },
        {
          "internalType": "uint256",
          "name": "_amountBMin",
          "type": "uint256"
        }
      ],
      "name": "addLiquidity",
      "outputs": [],
      "stateMutability": "nonpayable",
      "type": "function"
    },
    {
      "inputs": [
        {
          "internalType": "uint256",
          "name": "_protocolId",
          "type": "uint256"
        },
        {
          "internalType": "address",
          "name": "_token",
          "type": "address"
        },
        {
          "internalType": "uint256",
          "name": "_amountTokenDesired",
          "type": "uint256"
        },
        {
          "internalType": "uint256",
          "name": "_amountETHDesired",
          "type": "uint256"
        },
        {
          "internalType": "uint256",
          "name": "_amountTokenMin",
          "type": "uint256"
        },
        {
          "internalType": "uint256",
          "name": "_amountETHMin",
          "type": "uint256"
        }
      ],
      "name": "addLiquidityETH",
      "outputs": [],
      "stateMutability": "payable",
      "type": "function"
    },
    {
      "inputs": [],
      "name": "charityWallet",
      "outputs": [
        {
          "internalType": "address payable",
          "name": "",
          "type": "address"
        }
      ],
      "stateMutability": "view",
      "type": "function"
    },
    {
      "inputs": [],
      "name": "controllerWallet",
      "outputs": [
        {
          "internalType": "address payable",
          "name": "",
          "type": "address"
        }
      ],
      "stateMutability": "view",
      "type": "function"
    },
    {
      "inputs": [
        {
          "internalType": "address",
          "name": "_tokenAddress",
          "type": "address"
        },
        {
          "internalType": "uint256",
          "name": "_amount",
          "type": "uint256"
        },
        {
          "internalType": "uint256",
          "name": "_entranceFee",
          "type": "uint256"
        }
      ],
      "name": "depositFunds",
      "outputs": [],
      "stateMutability": "nonpayable",
      "type": "function"
    },
    {
      "inputs": [
        {
          "internalType": "address",
          "name": "_tokenAddress",
          "type": "address"
        },
        {
          "internalType": "uint256",
          "name": "_amount",
          "type": "uint256"
        },
        {
          "internalType": "uint256",
          "name": "_entranceFee",
          "type": "uint256"
        }
      ],
      "name": "depositFundsETH",
      "outputs": [],
      "stateMutability": "payable",
      "type": "function"
    },
    {
      "inputs": [
        {
          "internalType": "uint256",
          "name": "_protocolId",
          "type": "uint256"
        },
        {
          "internalType": "address",
          "name": "_lpTokenAddress",
          "type": "address"
        },
        {
          "internalType": "uint256",
          "name": "_poolId",
          "type": "uint256"
        },
        {
          "internalType": "uint256",
          "name": "_amount",
          "type": "uint256"
        }
      ],
      "name": "depositToFarm",
      "outputs": [],
      "stateMutability": "nonpayable",
      "type": "function"
    },
    {
      "inputs": [
        {
          "internalType": "uint256",
          "name": "_protocolId",
          "type": "uint256"
        },
        {
          "internalType": "uint256",
          "name": "_poolId",
          "type": "uint256"
        }
      ],
      "name": "emergencyWithdraw",
      "outputs": [],
      "stateMutability": "nonpayable",
      "type": "function"
    },
    {
      "inputs": [
        {
          "internalType": "uint256",
          "name": "",
          "type": "uint256"
        }
      ],
      "name": "factoryAddress",
      "outputs": [
        {
          "internalType": "address",
          "name": "",
          "type": "address"
        }
      ],
      "stateMutability": "view",
      "type": "function"
    },
    {
      "inputs": [],
      "name": "feeWallet",
      "outputs": [
        {
          "internalType": "address payable",
          "name": "",
          "type": "address"
        }
      ],
      "stateMutability": "view",
      "type": "function"
    },
    {
      "inputs": [
        {
          "components": [
            {
              "internalType": "uint256",
              "name": "_protocolId",
              "type": "uint256"
            },
            {
              "internalType": "uint256",
              "name": "_poolId",
              "type": "uint256"
            },
            {
              "internalType": "uint256",
              "name": "_amount",
              "type": "uint256"
            },
            {
              "internalType": "uint256",
              "name": "_controllerFee",
              "type": "uint256"
            },
            {
              "internalType": "uint256",
              "name": "_protocolFee",
              "type": "uint256"
            },
            {
              "internalType": "uint256",
              "name": "_proFee",
              "type": "uint256"
            },
            {
              "internalType": "uint256",
              "name": "_referrerFee",
              "type": "uint256"
            },
            {
              "internalType": "uint256",
              "name": "_charityFee",
              "type": "uint256"
            },
            {
              "internalType": "uint256",
              "name": "_stakingFee",
              "type": "uint256"
            }
          ],
          "internalType": "struct StrategyPoly.withdrawFromFarmStruct",
          "name": "withdrawStruct",
          "type": "tuple"
        }
      ],
      "name": "harvestFromFarm",
      "outputs": [
        {
          "internalType": "uint256",
          "name": "amountAfterFees",
          "type": "uint256"
        }
      ],
      "stateMutability": "nonpayable",
      "type": "function"
    },
    {
      "inputs": [],
      "name": "lastEntranceFee",
      "outputs": [
        {
          "internalType": "uint256",
          "name": "",
          "type": "uint256"
        }
      ],
      "stateMutability": "view",
      "type": "function"
    },
    {
      "inputs": [],
      "name": "lastFeePercantege",
      "outputs": [
        {
          "internalType": "uint256",
          "name": "",
          "type": "uint256"
        }
      ],
      "stateMutability": "view",
      "type": "function"
    },
    {
      "inputs": [
        {
          "internalType": "uint256",
          "name": "",
          "type": "uint256"
        }
      ],
      "name": "masterchefAddress",
      "outputs": [
        {
          "internalType": "address",
          "name": "",
          "type": "address"
        }
      ],
      "stateMutability": "view",
      "type": "function"
    },
    {
      "inputs": [],
      "name": "owner",
      "outputs": [
        {
          "internalType": "address payable",
          "name": "",
          "type": "address"
        }
      ],
      "stateMutability": "view",
      "type": "function"
    },
    {
      "inputs": [],
      "name": "platformOwner",
      "outputs": [
        {
          "internalType": "address payable",
          "name": "",
          "type": "address"
        }
      ],
      "stateMutability": "view",
      "type": "function"
    },
    {
      "inputs": [],
      "name": "proWallet",
      "outputs": [
        {
          "internalType": "address payable",
          "name": "",
          "type": "address"
        }
      ],
      "stateMutability": "view",
      "type": "function"
    },
    {
      "inputs": [],
      "name": "referrer",
      "outputs": [
        {
          "internalType": "address payable",
          "name": "",
          "type": "address"
        }
      ],
      "stateMutability": "view",
      "type": "function"
    },
    {
      "inputs": [
        {
          "internalType": "uint256",
          "name": "_protocolId",
          "type": "uint256"
        },
        {
          "internalType": "address",
          "name": "_tokenA",
          "type": "address"
        },
        {
          "internalType": "address",
          "name": "_tokenB",
          "type": "address"
        },
        {
          "internalType": "uint256",
          "name": "_liquidity",
          "type": "uint256"
        },
        {
          "internalType": "uint256",
          "name": "_amountAMin",
          "type": "uint256"
        },
        {
          "internalType": "uint256",
          "name": "_amountBMin",
          "type": "uint256"
        }
      ],
      "name": "removeLiquidity",
      "outputs": [],
      "stateMutability": "nonpayable",
      "type": "function"
    },
    {
      "inputs": [
        {
          "internalType": "uint256",
          "name": "_protocolId",
          "type": "uint256"
        },
        {
          "internalType": "address",
          "name": "_token",
          "type": "address"
        },
        {
          "internalType": "address",
          "name": "_lpToken",
          "type": "address"
        },
        {
          "internalType": "uint256",
          "name": "_liquidity",
          "type": "uint256"
        },
        {
          "internalType": "uint256",
          "name": "_amountTokenMin",
          "type": "uint256"
        },
        {
          "internalType": "uint256",
          "name": "_amountETHMin",
          "type": "uint256"
        }
      ],
      "name": "removeLiquidityETH",
      "outputs": [],
      "stateMutability": "nonpayable",
      "type": "function"
    },
    {
      "inputs": [
        {
          "internalType": "uint256",
          "name": "",
          "type": "uint256"
        }
      ],
      "name": "rewardTokenAddress",
      "outputs": [
        {
          "internalType": "address",
          "name": "",
          "type": "address"
        }
      ],
      "stateMutability": "view",
      "type": "function"
    },
    {
      "inputs": [
        {
          "internalType": "uint256",
          "name": "",
          "type": "uint256"
        }
      ],
      "name": "routerAddress",
      "outputs": [
        {
          "internalType": "address",
          "name": "",
          "type": "address"
        }
      ],
      "stateMutability": "view",
      "type": "function"
    },
    {
      "inputs": [
        {
          "internalType": "address payable",
          "name": "_platformOnwer",
          "type": "address"
        }
      ],
      "name": "setPlatformOwner",
      "outputs": [],
      "stateMutability": "nonpayable",
      "type": "function"
    },
    {
      "inputs": [],
      "name": "stakingWallet",
      "outputs": [
        {
          "internalType": "address payable",
          "name": "",
          "type": "address"
        }
      ],
      "stateMutability": "view",
      "type": "function"
    },
    {
      "inputs": [
        {
          "internalType": "uint256",
          "name": "_protocolId",
          "type": "uint256"
        },
        {
          "internalType": "uint256",
          "name": "_amountIn",
          "type": "uint256"
        },
        {
          "internalType": "uint256",
          "name": "_amountOutMin",
          "type": "uint256"
        },
        {
          "internalType": "address[]",
          "name": "_path",
          "type": "address[]"
        }
      ],
      "name": "swapExactETHforToken",
      "outputs": [
        {
          "internalType": "uint256[]",
          "name": "amounts",
          "type": "uint256[]"
        }
      ],
      "stateMutability": "nonpayable",
      "type": "function"
    },
    {
      "inputs": [
        {
          "internalType": "uint256",
          "name": "_protocolId",
          "type": "uint256"
        },
        {
          "internalType": "address",
          "name": "_token",
          "type": "address"
        },
        {
          "internalType": "uint256",
          "name": "_amountIn",
          "type": "uint256"
        },
        {
          "internalType": "uint256",
          "name": "_amountOutMin",
          "type": "uint256"
        },
        {
          "internalType": "address[]",
          "name": "_path",
          "type": "address[]"
        }
      ],
      "name": "swapExactTokenforToken",
      "outputs": [
        {
          "internalType": "uint256[]",
          "name": "amounts",
          "type": "uint256[]"
        }
      ],
      "stateMutability": "nonpayable",
      "type": "function"
    },
    {
      "inputs": [
        {
          "internalType": "uint256",
          "name": "_protocolId",
          "type": "uint256"
        },
        {
          "internalType": "address",
          "name": "_token",
          "type": "address"
        },
        {
          "internalType": "uint256",
          "name": "_amountIn",
          "type": "uint256"
        },
        {
          "internalType": "uint256",
          "name": "_amountOutMin",
          "type": "uint256"
        },
        {
          "internalType": "address[]",
          "name": "_path",
          "type": "address[]"
        }
      ],
      "name": "swapExactTokensForETH",
      "outputs": [
        {
          "internalType": "uint256[]",
          "name": "amounts",
          "type": "uint256[]"
        }
      ],
      "stateMutability": "nonpayable",
      "type": "function"
    },
    {
      "inputs": [
        {
          "internalType": "address",
          "name": "user",
          "type": "address"
        }
      ],
      "name": "toggleDepositLock",
      "outputs": [],
      "stateMutability": "nonpayable",
      "type": "function"
    },
    {
      "inputs": [
        {
          "internalType": "uint256",
          "name": "",
          "type": "uint256"
        }
      ],
      "name": "tokenDeposited",
      "outputs": [
        {
          "internalType": "address",
          "name": "",
          "type": "address"
        }
      ],
      "stateMutability": "view",
      "type": "function"
    },
    {
      "inputs": [],
      "name": "tokenDepositedLength",
      "outputs": [
        {
          "internalType": "uint256",
          "name": "length",
          "type": "uint256"
        }
      ],
      "stateMutability": "view",
      "type": "function"
    },
    {
      "inputs": [
        {
          "internalType": "address",
          "name": "",
          "type": "address"
        }
      ],
      "name": "userLocked",
      "outputs": [
        {
          "internalType": "bool",
          "name": "",
          "type": "bool"
        }
      ],
      "stateMutability": "view",
      "type": "function"
    },
    {
      "inputs": [
        {
          "components": [
            {
              "internalType": "uint256",
              "name": "_protocolId",
              "type": "uint256"
            },
            {
              "internalType": "uint256",
              "name": "_poolId",
              "type": "uint256"
            },
            {
              "internalType": "uint256",
              "name": "_amount",
              "type": "uint256"
            },
            {
              "internalType": "uint256",
              "name": "_controllerFee",
              "type": "uint256"
            },
            {
              "internalType": "uint256",
              "name": "_protocolFee",
              "type": "uint256"
            },
            {
              "internalType": "uint256",
              "name": "_proFee",
              "type": "uint256"
            },
            {
              "internalType": "uint256",
              "name": "_referrerFee",
              "type": "uint256"
            },
            {
              "internalType": "uint256",
              "name": "_charityFee",
              "type": "uint256"
            },
            {
              "internalType": "uint256",
              "name": "_stakingFee",
              "type": "uint256"
            }
          ],
          "internalType": "struct StrategyPoly.withdrawFromFarmStruct",
          "name": "withdrawStruct",
          "type": "tuple"
        }
      ],
      "name": "withdrawFromFarm",
      "outputs": [
        {
          "internalType": "uint256",
          "name": "amountAfterFees",
          "type": "uint256"
        }
      ],
      "stateMutability": "nonpayable",
      "type": "function"
    },
    {
      "inputs": [
        {
          "internalType": "address",
          "name": "_tokenAddress",
          "type": "address"
        },
        {
          "internalType": "uint256",
          "name": "_amount",
          "type": "uint256"
        }
      ],
      "name": "withdrawFunds",
      "outputs": [],
      "stateMutability": "nonpayable",
      "type": "function"
    },
    {
      "inputs": [
        {
          "internalType": "uint256",
          "name": "_amount",
          "type": "uint256"
        }
      ],
      "name": "withdrawFundsETH",
      "outputs": [],
      "stateMutability": "nonpayable",
      "type": "function"
    },
    {
      "stateMutability": "payable",
      "type": "receive"
    }
  ],
  "bytecode": "0x60806040523480156200001157600080fd5b50604051620030e5380380620030e5833981016040819052620000349162000423565b89518b5114801562000047575088518b51145b801562000055575087518b51145b620000a65760405162461bcd60e51b815260206004820152601b60248201527f506172616d6574657273206e6f7420657175616c206c656e6774680000000000604482015260640160405180910390fd5b60005b8b5181101562000216578a8181518110620000c857620000c862000578565b60200260200101516000808e8481518110620000e857620000e862000578565b6020026020010151815260200190815260200160002060006101000a8154816001600160a01b0302191690836001600160a01b0316021790555089818151811062000137576200013762000578565b6020026020010151600260008e848151811062000158576200015862000578565b6020026020010151815260200190815260200160002060006101000a8154816001600160a01b0302191690836001600160a01b03160217905550888181518110620001a757620001a762000578565b6020026020010151600360008e8481518110620001c857620001c862000578565b6020026020010151815260200190815260200160002060006101000a8154816001600160a01b0302191690836001600160a01b03160217905550806200020e906200058e565b9050620000a9565b5060068054336001600160a01b0319918216179091556009805482166001600160a01b03998a16179055600a805482169789169790971790965560078054871694881694909417909355600b8054861692871692909217909155600d8054851692861692909217909155600c8054841691851691909117905560088054909216921691909117905550620005b692505050565b634e487b7160e01b600052604160045260246000fd5b604051601f8201601f191681016001600160401b0381118282101715620002ea57620002ea620002a9565b604052919050565b60006001600160401b038211156200030e576200030e620002a9565b5060051b60200190565b600082601f8301126200032a57600080fd5b81516020620003436200033d83620002f2565b620002bf565b82815260059290921b840181019181810190868411156200036357600080fd5b8286015b8481101562000380578051835291830191830162000367565b509695505050505050565b6001600160a01b0381168114620003a157600080fd5b50565b600082601f830112620003b657600080fd5b81516020620003c96200033d83620002f2565b82815260059290921b84018101918181019086841115620003e957600080fd5b8286015b848110156200038057805162000403816200038b565b8352918301918301620003ed565b80516200041e816200038b565b919050565b60008060008060008060008060008060006101608c8e0312156200044657600080fd5b8b516001600160401b038111156200045d57600080fd5b6200046b8e828f0162000318565b60208e0151909c5090506001600160401b038111156200048a57600080fd5b620004988e828f01620003a4565b60408e0151909b5090506001600160401b03811115620004b757600080fd5b620004c58e828f01620003a4565b60608e0151909a5090506001600160401b03811115620004e457600080fd5b620004f28e828f01620003a4565b9850506200050360808d0162000411565b96506200051360a08d0162000411565b95506200052360c08d0162000411565b94506200053360e08d0162000411565b9350620005446101008d0162000411565b9250620005556101208d0162000411565b9150620005666101408d0162000411565b90509295989b509295989b9093969950565b634e487b7160e01b600052603260045260246000fd5b600060018201620005af57634e487b7160e01b600052601160045260246000fd5b5060010190565b612b1f80620005c66000396000f3fe6080604052600436106101e45760003560e01c80637039c24a11610101578063a04403271161009a578063bba053841161006c578063bba05384146105e4578063c107532914610624578063d4580e3e14610644578063e02367b414610664578063f25f4b561461068457005b8063a04403271461054e578063a66a735e14610584578063ab00c43e146105a4578063ae1975dc146105c457005b80638e9068e6116100d35780638e9068e6146104b8578063961095c5146104d85780639920dedb146104f85780639a3771a31461051857005b80637039c24a146104455780637b2087691461045857806389189cb8146104785780638da5cb5b1461049857005b80634bfe642d1161017e5780635930a0a1116101505780635930a0a1146103825780635bb7ae60146103b857806364481e25146103e557806366551c251461040557806368447c931461042557005b80634bfe642d1461030d5780634df8ccb11461032d57806354daabc31461034d57806356264e321461036d57005b80631beed26c116101b75780631beed26c146102a45780631f276b6e146102c45780633db9a65e146102e457806344e54487146102fa57005b80620c9fd5146101ed578063050915b21461024057806306ee6ad8146102645780630fc6b7131461028457005b366101eb57005b005b3480156101f957600080fd5b5061022361020836600461244d565b6001602052600090815260409020546001600160a01b031681565b6040516001600160a01b0390911681526020015b60405180910390f35b34801561024c57600080fd5b5061025660055481565b604051908152602001610237565b34801561027057600080fd5b50600c54610223906001600160a01b031681565b34801561029057600080fd5b506101eb61029f36600461247e565b6106a4565b3480156102b057600080fd5b506101eb6102bf3660046124b3565b610913565b3480156102d057600080fd5b506101eb6102df366004612518565b610b10565b3480156102f057600080fd5b5061025660045481565b6101eb61030836600461247e565b610b9c565b34801561031957600080fd5b50600d54610223906001600160a01b031681565b34801561033957600080fd5b50600954610223906001600160a01b031681565b34801561035957600080fd5b506101eb61036836600461253a565b610cfe565b34801561037957600080fd5b50600e54610256565b34801561038e57600080fd5b5061022361039d36600461244d565b6003602052600090815260409020546001600160a01b031681565b3480156103c457600080fd5b506103d86103d33660046125aa565b610d37565b604051610237919061261d565b3480156103f157600080fd5b506103d86104003660046125aa565b610e77565b34801561041157600080fd5b506103d8610420366004612661565b610f44565b34801561043157600080fd5b50600a54610223906001600160a01b031681565b6101eb6104533660046126c2565b610ffd565b34801561046457600080fd5b50600b54610223906001600160a01b031681565b34801561048457600080fd5b506101eb61049336600461244d565b611137565b3480156104a457600080fd5b50600654610223906001600160a01b031681565b3480156104c457600080fd5b506101eb6104d336600461253a565b6111c1565b3480156104e457600080fd5b506101eb6104f3366004612712565b611201565b34801561050457600080fd5b50600854610223906001600160a01b031681565b34801561052457600080fd5b5061022361053336600461244d565b6000602081905290815260409020546001600160a01b031681565b34801561055a57600080fd5b5061022361056936600461244d565b6002602052600090815260409020546001600160a01b031681565b34801561059057600080fd5b506101eb61059f36600461276e565b6112e8565b3480156105b057600080fd5b506102236105bf36600461244d565b6113f8565b3480156105d057600080fd5b506101eb6105df366004612712565b611422565b3480156105f057600080fd5b506106146105ff36600461253a565b600f6020526000908152604090205460ff1681565b6040519015158152602001610237565b34801561063057600080fd5b506101eb61063f3660046127ab565b61150d565b34801561065057600080fd5b5061025661065f3660046127d7565b6115de565b34801561067057600080fd5b5061025661067f3660046127d7565b61234d565b34801561069057600080fd5b50600754610223906001600160a01b031681565b6006546001600160a01b031633146106bb57600080fd5b6000821161070b5760405162461bcd60e51b815260206004820152601860248201527704572726f723a20616d6f756e742063616e277420626520360441b60448201526064015b60405180910390fd5b336000908152600f602052604090205460ff16156107615760405162461bcd60e51b8152602060048201526013602482015272155cd95c8818d85b9b9bdd0819195c1bdcda5d606a1b6044820152606401610702565b6040516323b872dd60e01b8152336004820152306024820152604481018390526001600160a01b038416906323b872dd906064016020604051808303816000875af11580156107b4573d6000803e3d6000fd5b505050506040513d601f19601f820116820180604052508101906107d891906127f0565b50600e805460018101825560009182527fbb7b4a454dc3493923482f07822329ed19e8244eff582cc204f8554c3620c3fd0180546001600160a01b0319166001600160a01b0386161790558161083061271085612828565b61083a919061284a565b905060006108488285612869565b60085460405163a9059cbb60e01b81529192506001600160a01b038088169263a9059cbb9261087d9216908690600401612880565b6020604051808303816000875af115801561089c573d6000803e3d6000fd5b505050506040513d601f19601f820116820180604052508101906108c091906127f0565b5060065460408051838152602081018590526001600160a01b038881169316917f6427e0cea551d11a873721f5e4eb2e5ad031fca4c7b31e95a697ca91b8bd1feb91015b60405180910390a35050505050565b6009546001600160a01b0316331461092a57600080fd5b6000878152602081905260409081902054905163095ea7b360e01b81526001600160a01b038881169263095ea7b39261096b92909116908890600401612880565b6020604051808303816000875af115801561098a573d6000803e3d6000fd5b505050506040513d601f19601f820116820180604052508101906109ae91906127f0565b506000878152602081905260409081902054905163095ea7b360e01b81526001600160a01b038781169263095ea7b3926109f092909116908790600401612880565b6020604051808303816000875af1158015610a0f573d6000803e3d6000fd5b505050506040513d601f19601f82011682018060405250810190610a3391906127f0565b506000878152602081905260409020546001600160a01b031663e8e3370087878787878730610a6442610258612899565b60405160e08a901b6001600160e01b03191681526001600160a01b039889166004820152968816602488015260448701959095526064860193909352608485019190915260a484015290921660c482015260e4810191909152610104016060604051808303816000875af1158015610ae0573d6000803e3d6000fd5b505050506040513d601f19601f82011682018060405250810190610b0491906128b1565b50505050505050505050565b6009546001600160a01b03163314610b2757600080fd5b600082815260026020526040908190205490516302f940c760e41b8152600481018390523060248201526001600160a01b0390911690632f940c7090604401600060405180830381600087803b158015610b8057600080fd5b505af1158015610b94573d6000803e3d6000fd5b505050505050565b6006546001600160a01b03163314610bb357600080fd5b60008211610bfe5760405162461bcd60e51b815260206004820152601860248201527704572726f723a20616d6f756e742063616e277420626520360441b6044820152606401610702565b336000908152600f602052604090205460ff1615610c545760405162461bcd60e51b8152602060048201526013602482015272155cd95c8818d85b9b9bdd0819195c1bdcda5d606a1b6044820152606401610702565b600081610c6361271085612828565b610c6d919061284a565b90506000610c7b8285612869565b6008546040519192506001600160a01b03169083156108fc029084906000818181858888f19350505050158015610cb6573d6000803e3d6000fd5b5060065460408051838152602081018590526001600160a01b038881169316917f142820add0a5d3e5ad3b4bf87784c72bd6b7767da6abad3ce6f8605f762430429101610904565b6009546001600160a01b03163314610d1557600080fd5b600980546001600160a01b0319166001600160a01b0392909216919091179055565b6009546060906001600160a01b03163314610d5157600080fd5b6000878152602081905260409081902054905163095ea7b360e01b81526001600160a01b038881169263095ea7b392610d9292909116908990600401612880565b6020604051808303816000875af1158015610db1573d6000803e3d6000fd5b505050506040513d601f19601f82011682018060405250810190610dd591906127f0565b506000878152602081905260409020546001600160a01b03166318cbafe58686868630610e0442610258612899565b6040518763ffffffff1660e01b8152600401610e2596959493929190612928565b6000604051808303816000875af1158015610e44573d6000803e3d6000fd5b505050506040513d6000823e601f3d908101601f19168201604052610e6c919081019061297c565b979650505050505050565b6009546060906001600160a01b03163314610e9157600080fd5b6000878152602081905260409081902054905163095ea7b360e01b81526001600160a01b038881169263095ea7b392610ed292909116908990600401612880565b6020604051808303816000875af1158015610ef1573d6000803e3d6000fd5b505050506040513d601f19601f82011682018060405250810190610f1591906127f0565b506000878152602081905260409020546001600160a01b03166338ed17398686868630610e0442610258612899565b6009546060906001600160a01b03163314610f5e57600080fd5b6000868152602081905260409020546001600160a01b0316637ff36ab58686868630610f8c42610258612899565b6040518763ffffffff1660e01b8152600401610fac959493929190612a3a565b60006040518083038185885af1158015610fca573d6000803e3d6000fd5b50505050506040513d6000823e601f3d908101601f19168201604052610ff3919081019061297c565b9695505050505050565b6009546001600160a01b0316331461101457600080fd5b6000868152602081905260409081902054905163095ea7b360e01b81526001600160a01b038781169263095ea7b39261105592909116908890600401612880565b6020604051808303816000875af1158015611074573d6000803e3d6000fd5b505050506040513d601f19601f8201168201806040525081019061109891906127f0565b506000868152602081905260409020546001600160a01b031663f305d7198487878686306110c842610258612899565b6040518863ffffffff1660e01b81526004016110e996959493929190612a71565b60606040518083038185885af1158015611107573d6000803e3d6000fd5b50505050506040513d601f19601f8201168201806040525081019061112c91906128b1565b505050505050505050565b6006546001600160a01b0316331461114e57600080fd5b604051339082156108fc029083906000818181858888f1935050505015801561117b573d6000803e3d6000fd5b506006546040518281526001600160a01b03909116907fe380c5053d453e29c6d6fa8b52f48bc3266a7bbd0f19004b711f53e5e9bd0f759060200160405180910390a250565b6009546001600160a01b031633146111d857600080fd5b6001600160a01b03166000908152600f60205260409020805460ff19811660ff90911615179055565b6009546001600160a01b0316331461121857600080fd5b6000868152602081905260409020546001600160a01b031663baa2abde86868686863061124742610258612899565b60405160e089901b6001600160e01b03191681526001600160a01b039788166004820152958716602487015260448601949094526064850192909252608484015290921660a482015260c481019190915260e4015b60408051808303816000875af11580156112ba573d6000803e3d6000fd5b505050506040513d601f19601f820116820180604052508101906112de9190612aac565b5050505050505050565b6009546001600160a01b031633146112ff57600080fd5b6000848152600260205260409081902054905163095ea7b360e01b81526001600160a01b038581169263095ea7b39261134092909116908590600401612880565b6020604051808303816000875af115801561135f573d6000803e3d6000fd5b505050506040513d601f19601f8201168201806040525081019061138391906127f0565b5060008481526002602052604090819020549051638dbdbe6d60e01b815260048101849052602481018390523060448201526001600160a01b0390911690638dbdbe6d90606401600060405180830381600087803b1580156113e457600080fd5b505af11580156112de573d6000803e3d6000fd5b600e818154811061140857600080fd5b6000918252602090912001546001600160a01b0316905081565b6009546001600160a01b0316331461143957600080fd5b6000868152602081905260409081902054905163095ea7b360e01b81526001600160a01b038681169263095ea7b39261147a92909116908790600401612880565b6020604051808303816000875af1158015611499573d6000803e3d6000fd5b505050506040513d601f19601f820116820180604052508101906114bd91906127f0565b506000868152602081905260409020546001600160a01b03166302751cec86858585306114ec42610258612899565b6040518763ffffffff1660e01b815260040161129c96959493929190612a71565b6006546001600160a01b0316331461152457600080fd5b60405163a9059cbb60e01b81526001600160a01b0383169063a9059cbb906115529033908590600401612880565b6020604051808303816000875af1158015611571573d6000803e3d6000fd5b505050506040513d601f19601f8201168201806040525081019061159591906127f0565b506006546040518281526001600160a01b038481169216907fa92ff919b850e4909ab2261d907ef955f11bc1716733a6cbece38d163a69af8a9060200160405180910390a35050565b6009546000906001600160a01b031633146115f857600080fd5b60008235810361168b57823560009081526002602090815260409182902054915163aa8f6ca160e01b81529085013560048201523060248201526001600160a01b039091169063aa8f6ca190604401602060405180830381865afa158015611664573d6000803e3d6000fd5b505050506040513d601f19601f820116820180604052508101906116889190612ad0565b90505b8235600090815260026020908152604091829020549151630c7e663b60e11b81529085013560048201523060248201526001600160a01b03909116906318fccc76906044015b600060405180830381600087803b1580156116eb57600080fd5b505af11580156116ff573d6000803e3d6000fd5b50600092505050606084013561171761271084612828565b611721919061284a565b84356000908152600360205260409081902054600854915163a9059cbb60e01b81529293506001600160a01b039081169263a9059cbb926117689216908590600401612880565b6020604051808303816000875af1158015611787573d6000803e3d6000fd5b505050506040513d601f19601f820116820180604052508101906117ab91906127f0565b5060006117b88284612869565b600d549091506001600160a01b0316600003611cb357600060808601356117e161271084612828565b6117eb919061284a565b90506117f78183612869565b600a549092506001600160a01b0316600003611a0557600060e087013561182061271084612828565b61182a919061284a565b9050600061010088013561184061271085612828565b61184a919061284a565b9050806118578385612869565b6118619190612869565b88356000908152600360205260409081902054600754915163a9059cbb60e01b81529295506001600160a01b039081169263a9059cbb926118a89216908790600401612880565b6020604051808303816000875af11580156118c7573d6000803e3d6000fd5b505050506040513d601f19601f820116820180604052508101906118eb91906127f0565b5087356000908152600360205260409081902054600b54915163a9059cbb60e01b81526001600160a01b039182169263a9059cbb92611931929116908690600401612880565b6020604051808303816000875af1158015611950573d6000803e3d6000fd5b505050506040513d601f19601f8201168201806040525081019061197491906127f0565b5087356000908152600360205260409081902054600c54915163a9059cbb60e01b81526001600160a01b039182169263a9059cbb926119ba929116908590600401612880565b6020604051808303816000875af11580156119d9573d6000803e3d6000fd5b505050506040513d601f19601f820116820180604052508101906119fd91906127f0565b505050611cad565b600060e0870135611a1861271084612828565b611a22919061284a565b90506000610100880135611a3861271085612828565b611a42919061284a565b9050600060c0890135611a5761271086612828565b611a61919061284a565b90508082611a6f8587612869565b611a799190612869565b611a839190612869565b89356000908152600360205260409081902054600754915163a9059cbb60e01b81529296506001600160a01b039081169263a9059cbb92611aca9216908890600401612880565b6020604051808303816000875af1158015611ae9573d6000803e3d6000fd5b505050506040513d601f19601f82011682018060405250810190611b0d91906127f0565b5088356000908152600360205260409081902054600b54915163a9059cbb60e01b81526001600160a01b039182169263a9059cbb92611b53929116908790600401612880565b6020604051808303816000875af1158015611b72573d6000803e3d6000fd5b505050506040513d601f19601f82011682018060405250810190611b9691906127f0565b5088356000908152600360205260409081902054600c54915163a9059cbb60e01b81526001600160a01b039182169263a9059cbb92611bdc929116908690600401612880565b6020604051808303816000875af1158015611bfb573d6000803e3d6000fd5b505050506040513d601f19601f82011682018060405250810190611c1f91906127f0565b5088356000908152600360205260409081902054600a54915163a9059cbb60e01b81526001600160a01b039182169263a9059cbb92611c65929116908590600401612880565b6020604051808303816000875af1158015611c84573d6000803e3d6000fd5b505050506040513d601f19601f82011682018060405250810190611ca891906127f0565b505050505b506122fe565b60006080860135611cc661271084612828565b611cd0919061284a565b9050611cdc8183612869565b600a549092506001600160a01b0316600003611f9f57600060a0870135611d0561271084612828565b611d0f919061284a565b9050611d1b8183612869565b87356000908152600360205260409081902054600d54915163a9059cbb60e01b81529294506001600160a01b039081169263a9059cbb92611d629216908590600401612880565b6020604051808303816000875af1158015611d81573d6000803e3d6000fd5b505050506040513d601f19601f82011682018060405250810190611da591906127f0565b50600060e0880135611db961271085612828565b611dc3919061284a565b90506000610100890135611dd961271086612828565b611de3919061284a565b905080611df08386612869565b611dfa9190612869565b89356000908152600360205260409081902054600754915163a9059cbb60e01b81529296506001600160a01b039081169263a9059cbb92611e419216908890600401612880565b6020604051808303816000875af1158015611e60573d6000803e3d6000fd5b505050506040513d601f19601f82011682018060405250810190611e8491906127f0565b5088356000908152600360205260409081902054600b54915163a9059cbb60e01b81526001600160a01b039182169263a9059cbb92611eca929116908690600401612880565b6020604051808303816000875af1158015611ee9573d6000803e3d6000fd5b505050506040513d601f19601f82011682018060405250810190611f0d91906127f0565b5088356000908152600360205260409081902054600c54915163a9059cbb60e01b81526001600160a01b039182169263a9059cbb92611f53929116908590600401612880565b6020604051808303816000875af1158015611f72573d6000803e3d6000fd5b505050506040513d601f19601f82011682018060405250810190611f9691906127f0565b505050506122fc565b600060a0870135611fb261271084612828565b611fbc919061284a565b9050611fc88183612869565b87356000908152600360205260409081902054600d54915163a9059cbb60e01b81529294506001600160a01b039081169263a9059cbb9261200f9216908590600401612880565b6020604051808303816000875af115801561202e573d6000803e3d6000fd5b505050506040513d601f19601f8201168201806040525081019061205291906127f0565b50600060e088013561206661271085612828565b612070919061284a565b9050600061010089013561208661271086612828565b612090919061284a565b9050600060c08a01356120a561271087612828565b6120af919061284a565b905080826120bd8588612869565b6120c79190612869565b6120d19190612869565b8a356000908152600360205260409081902054600754915163a9059cbb60e01b81529297506001600160a01b039081169263a9059cbb926121189216908990600401612880565b6020604051808303816000875af1158015612137573d6000803e3d6000fd5b505050506040513d601f19601f8201168201806040525081019061215b91906127f0565b5089356000908152600360205260409081902054600b54915163a9059cbb60e01b81526001600160a01b039182169263a9059cbb926121a1929116908790600401612880565b6020604051808303816000875af11580156121c0573d6000803e3d6000fd5b505050506040513d601f19601f820116820180604052508101906121e491906127f0565b5089356000908152600360205260409081902054600c54915163a9059cbb60e01b81526001600160a01b039182169263a9059cbb9261222a929116908690600401612880565b6020604051808303816000875af1158015612249573d6000803e3d6000fd5b505050506040513d601f19601f8201168201806040525081019061226d91906127f0565b5089356000908152600360205260409081902054600a54915163a9059cbb60e01b81526001600160a01b039182169263a9059cbb926122b3929116908590600401612880565b6020604051808303816000875af11580156122d2573d6000803e3d6000fd5b505050506040513d601f19601f820116820180604052508101906122f691906127f0565b50505050505b505b60065460405182815291945084916001600160a01b03909116907f06c5efeff5c320943d265dc4e5f1af95ad523555ce0c1957e367dda5514572df9060200160405180910390a2505050919050565b6009546000906001600160a01b0316331461236757600080fd5b6000823581036123fa57823560009081526002602090815260409182902054915163aa8f6ca160e01b81529085013560048201523060248201526001600160a01b039091169063aa8f6ca190604401602060405180830381865afa1580156123d3573d6000803e3d6000fd5b505050506040513d601f19601f820116820180604052508101906123f79190612ad0565b90505b823560009081526002602090815260409182902054825163d1abb90760e01b81529186013560048301529185013560248201523060448201526001600160a01b039091169063d1abb907906064016116d1565b60006020828403121561245f57600080fd5b5035919050565b6001600160a01b038116811461247b57600080fd5b50565b60008060006060848603121561249357600080fd5b833561249e81612466565b95602085013595506040909401359392505050565b600080600080600080600060e0888a0312156124ce57600080fd5b8735965060208801356124e081612466565b955060408801356124f081612466565b969995985095966060810135965060808101359560a0820135955060c0909101359350915050565b6000806040838503121561252b57600080fd5b50508035926020909101359150565b60006020828403121561254c57600080fd5b813561255781612466565b9392505050565b60008083601f84011261257057600080fd5b50813567ffffffffffffffff81111561258857600080fd5b6020830191508360208260051b85010111156125a357600080fd5b9250929050565b60008060008060008060a087890312156125c357600080fd5b8635955060208701356125d581612466565b94506040870135935060608701359250608087013567ffffffffffffffff8111156125ff57600080fd5b61260b89828a0161255e565b979a9699509497509295939492505050565b6020808252825182820181905260009190848201906040850190845b8181101561265557835183529284019291840191600101612639565b50909695505050505050565b60008060008060006080868803121561267957600080fd5b853594506020860135935060408601359250606086013567ffffffffffffffff8111156126a557600080fd5b6126b18882890161255e565b969995985093965092949392505050565b60008060008060008060c087890312156126db57600080fd5b8635955060208701356126ed81612466565b95989597505050506040840135936060810135936080820135935060a0909101359150565b60008060008060008060c0878903121561272b57600080fd5b86359550602087013561273d81612466565b9450604087013561274d81612466565b959894975094956060810135955060808101359460a0909101359350915050565b6000806000806080858703121561278457600080fd5b84359350602085013561279681612466565b93969395505050506040820135916060013590565b600080604083850312156127be57600080fd5b82356127c981612466565b946020939093013593505050565b600061012082840312156127ea57600080fd5b50919050565b60006020828403121561280257600080fd5b8151801515811461255757600080fd5b634e487b7160e01b600052601160045260246000fd5b60008261284557634e487b7160e01b600052601260045260246000fd5b500490565b600081600019048311821515161561286457612864612812565b500290565b60008282101561287b5761287b612812565b500390565b6001600160a01b03929092168252602082015260400190565b600082198211156128ac576128ac612812565b500190565b6000806000606084860312156128c657600080fd5b8351925060208401519150604084015190509250925092565b8183526000602080850194508260005b8581101561291d57813561290281612466565b6001600160a01b0316875295820195908201906001016128ef565b509495945050505050565b86815285602082015260a06040820152600061294860a0830186886128df565b6001600160a01b039490941660608301525060800152949350505050565b634e487b7160e01b600052604160045260246000fd5b6000602080838503121561298f57600080fd5b825167ffffffffffffffff808211156129a757600080fd5b818501915085601f8301126129bb57600080fd5b8151818111156129cd576129cd612966565b8060051b604051601f19603f830116810181811085821117156129f2576129f2612966565b604052918252848201925083810185019188831115612a1057600080fd5b938501935b82851015612a2e57845184529385019392850192612a15565b98975050505050505050565b858152608060208201526000612a546080830186886128df565b6001600160a01b0394909416604083015250606001529392505050565b6001600160a01b039687168152602081019590955260408501939093526060840191909152909216608082015260a081019190915260c00190565b60008060408385031215612abf57600080fd5b505080516020909101519092909150565b600060208284031215612ae257600080fd5b505191905056fea264697066735822122054e32270f3ecc692ae060336e4cacf26bb33f31500f21b33205d078313d4300964736f6c634300080d0033",
  "linkReferences": {},
  "deployedLinkReferences": {}
}