{
  "_format": "hh-sol-artifact-1",
  "contractName": "StrategyFTM",
  "sourceName": "contracts/StrategyFTM.sol",
  "abi": [
    {
      "inputs": [
        {
          "internalType": "uint256[]",
          "name": "_protocolIds",
          "type": "uint256[]"
        },
        {
          "internalType": "address[]",
          "name": "_routers",
          "type": "address[]"
        },
        {
          "internalType": "address[]",
          "name": "_chefs",
          "type": "address[]"
        },
        {
          "internalType": "address[]",
          "name": "_rewardToken",
          "type": "address[]"
        },
        {
          "internalType": "address payable",
          "name": "_platformOwner",
          "type": "address"
        },
        {
          "internalType": "address payable",
          "name": "_referrer",
          "type": "address"
        },
        {
          "internalType": "address payable",
          "name": "_controllerWallet",
          "type": "address"
        },
        {
          "internalType": "address payable",
          "name": "_feeWallet",
          "type": "address"
        },
        {
          "internalType": "address payable",
          "name": "_charityWallet",
          "type": "address"
        },
        {
          "internalType": "address payable",
          "name": "_stakingWallet",
          "type": "address"
        },
        {
          "internalType": "address payable",
          "name": "_proWallet",
          "type": "address"
        }
      ],
      "stateMutability": "nonpayable",
      "type": "constructor"
    },
    {
      "anonymous": false,
      "inputs": [
        {
          "indexed": true,
          "internalType": "uint256",
          "name": "_protocolID",
          "type": "uint256"
        },
        {
          "indexed": true,
          "internalType": "uint256",
          "name": "_farmID",
          "type": "uint256"
        }
      ],
      "name": "DepositedToFarm",
      "type": "event"
    },
    {
      "anonymous": false,
      "inputs": [
        {
          "indexed": true,
          "internalType": "address",
          "name": "_userAddress",
          "type": "address"
        },
        {
          "indexed": true,
          "internalType": "address",
          "name": "_tokenAddress",
          "type": "address"
        },
        {
          "indexed": false,
          "internalType": "uint256",
          "name": "_amount",
          "type": "uint256"
        },
        {
          "indexed": false,
          "internalType": "uint256",
          "name": "_feeAmount",
          "type": "uint256"
        }
      ],
      "name": "ETHDeposited",
      "type": "event"
    },
    {
      "anonymous": false,
      "inputs": [
        {
          "indexed": true,
          "internalType": "address",
          "name": "userAddress",
          "type": "address"
        },
        {
          "indexed": false,
          "internalType": "uint256",
          "name": "amount",
          "type": "uint256"
        }
      ],
      "name": "FeeCollected",
      "type": "event"
    },
    {
      "anonymous": false,
      "inputs": [
        {
          "indexed": true,
          "internalType": "address",
          "name": "_userAddress",
          "type": "address"
        },
        {
          "indexed": true,
          "internalType": "address",
          "name": "_tokenAddress",
          "type": "address"
        },
        {
          "indexed": false,
          "internalType": "uint256",
          "name": "_amount",
          "type": "uint256"
        },
        {
          "indexed": false,
          "internalType": "uint256",
          "name": "_feeAmount",
          "type": "uint256"
        }
      ],
      "name": "FundsDeposited",
      "type": "event"
    },
    {
      "anonymous": false,
      "inputs": [
        {
          "indexed": true,
          "internalType": "address",
          "name": "_userAddress",
          "type": "address"
        },
        {
          "indexed": true,
          "internalType": "address",
          "name": "_tokenAddress",
          "type": "address"
        },
        {
          "indexed": false,
          "internalType": "uint256",
          "name": "_amount",
          "type": "uint256"
        }
      ],
      "name": "FundsWithdrawn",
      "type": "event"
    },
    {
      "anonymous": false,
      "inputs": [
        {
          "indexed": true,
          "internalType": "address",
          "name": "_userAddress",
          "type": "address"
        },
        {
          "indexed": false,
          "internalType": "uint256",
          "name": "_amount",
          "type": "uint256"
        }
      ],
      "name": "FundsWithdrawnETH",
      "type": "event"
    },
    {
      "anonymous": false,
      "inputs": [
        {
          "indexed": true,
          "internalType": "uint256",
          "name": "_protocolID",
          "type": "uint256"
        },
        {
          "indexed": true,
          "internalType": "uint256",
          "name": "_farmID",
          "type": "uint256"
        }
      ],
      "name": "withdrawnFromFarm",
      "type": "event"
    },
    {
      "stateMutability": "payable",
      "type": "fallback"
    },
    {
      "inputs": [
        {
          "internalType": "uint256",
          "name": "_protocolId",
          "type": "uint256"
        },
        {
          "internalType": "address",
          "name": "_tokenA",
          "type": "address"
        },
        {
          "internalType": "address",
          "name": "_tokenB",
          "type": "address"
        },
        {
          "internalType": "uint256",
          "name": "_amountADesired",
          "type": "uint256"
        },
        {
          "internalType": "uint256",
          "name": "_amountBDesired",
          "type": "uint256"
        },
        {
          "internalType": "uint256",
          "name": "_amountAMin",
          "type": "uint256"
        },
        {
          "internalType": "uint256",
          "name": "_amountBMin",
          "type": "uint256"
        }
      ],
      "name": "addLiquidity",
      "outputs": [],
      "stateMutability": "nonpayable",
      "type": "function"
    },
    {
      "inputs": [
        {
          "internalType": "uint256",
          "name": "_protocolId",
          "type": "uint256"
        },
        {
          "internalType": "address",
          "name": "_token",
          "type": "address"
        },
        {
          "internalType": "uint256",
          "name": "_amountTokenDesired",
          "type": "uint256"
        },
        {
          "internalType": "uint256",
          "name": "_amountETHDesired",
          "type": "uint256"
        },
        {
          "internalType": "uint256",
          "name": "_amountTokenMin",
          "type": "uint256"
        },
        {
          "internalType": "uint256",
          "name": "_amountETHMin",
          "type": "uint256"
        }
      ],
      "name": "addLiquidityETH",
      "outputs": [],
      "stateMutability": "payable",
      "type": "function"
    },
    {
      "inputs": [],
      "name": "charityWallet",
      "outputs": [
        {
          "internalType": "address payable",
          "name": "",
          "type": "address"
        }
      ],
      "stateMutability": "view",
      "type": "function"
    },
    {
      "inputs": [],
      "name": "controllerWallet",
      "outputs": [
        {
          "internalType": "address payable",
          "name": "",
          "type": "address"
        }
      ],
      "stateMutability": "view",
      "type": "function"
    },
    {
      "inputs": [
        {
          "internalType": "address",
          "name": "_tokenAddress",
          "type": "address"
        },
        {
          "internalType": "uint256",
          "name": "_amount",
          "type": "uint256"
        },
        {
          "internalType": "uint256",
          "name": "_entranceFee",
          "type": "uint256"
        }
      ],
      "name": "depositFunds",
      "outputs": [],
      "stateMutability": "nonpayable",
      "type": "function"
    },
    {
      "inputs": [
        {
          "internalType": "address",
          "name": "_tokenAddress",
          "type": "address"
        },
        {
          "internalType": "uint256",
          "name": "_amount",
          "type": "uint256"
        },
        {
          "internalType": "uint256",
          "name": "_entranceFee",
          "type": "uint256"
        }
      ],
      "name": "depositFundsETH",
      "outputs": [],
      "stateMutability": "payable",
      "type": "function"
    },
    {
      "inputs": [
        {
          "internalType": "uint256",
          "name": "_protocolId",
          "type": "uint256"
        },
        {
          "internalType": "address",
          "name": "_lpTokenAddress",
          "type": "address"
        },
        {
          "internalType": "uint256",
          "name": "_poolId",
          "type": "uint256"
        },
        {
          "internalType": "uint256",
          "name": "_amount",
          "type": "uint256"
        }
      ],
      "name": "depositToFarm",
      "outputs": [],
      "stateMutability": "nonpayable",
      "type": "function"
    },
    {
      "inputs": [
        {
          "internalType": "uint256",
          "name": "_protocolId",
          "type": "uint256"
        },
        {
          "internalType": "uint256",
          "name": "_poolId",
          "type": "uint256"
        }
      ],
      "name": "emergencyWithdraw",
      "outputs": [],
      "stateMutability": "nonpayable",
      "type": "function"
    },
    {
      "inputs": [
        {
          "internalType": "uint256",
          "name": "_protocolId",
          "type": "uint256"
        },
        {
          "internalType": "uint256",
          "name": "_poolId",
          "type": "uint256"
        }
      ],
      "name": "emergencyWithdrawTo",
      "outputs": [],
      "stateMutability": "nonpayable",
      "type": "function"
    },
    {
      "inputs": [
        {
          "internalType": "uint256",
          "name": "",
          "type": "uint256"
        }
      ],
      "name": "factoryAddress",
      "outputs": [
        {
          "internalType": "address",
          "name": "",
          "type": "address"
        }
      ],
      "stateMutability": "view",
      "type": "function"
    },
    {
      "inputs": [],
      "name": "feeWallet",
      "outputs": [
        {
          "internalType": "address payable",
          "name": "",
          "type": "address"
        }
      ],
      "stateMutability": "view",
      "type": "function"
    },
    {
      "inputs": [
        {
          "components": [
            {
              "internalType": "uint256",
              "name": "_protocolId",
              "type": "uint256"
            },
            {
              "internalType": "uint256",
              "name": "_poolId",
              "type": "uint256"
            },
            {
              "internalType": "uint256",
              "name": "_amount",
              "type": "uint256"
            },
            {
              "internalType": "uint256",
              "name": "_controllerFee",
              "type": "uint256"
            },
            {
              "internalType": "uint256",
              "name": "_protocolFee",
              "type": "uint256"
            },
            {
              "internalType": "uint256",
              "name": "_proFee",
              "type": "uint256"
            },
            {
              "internalType": "uint256",
              "name": "_referrerFee",
              "type": "uint256"
            },
            {
              "internalType": "uint256",
              "name": "_charityFee",
              "type": "uint256"
            },
            {
              "internalType": "uint256",
              "name": "_stakingFee",
              "type": "uint256"
            }
          ],
          "internalType": "struct StrategyFTM.withdrawFromFarmStruct",
          "name": "withdrawStruct",
          "type": "tuple"
        }
      ],
      "name": "harvestFromFarm",
      "outputs": [
        {
          "internalType": "uint256",
          "name": "amountAfterFees",
          "type": "uint256"
        }
      ],
      "stateMutability": "nonpayable",
      "type": "function"
    },
    {
      "inputs": [],
      "name": "lastEntranceFee",
      "outputs": [
        {
          "internalType": "uint256",
          "name": "",
          "type": "uint256"
        }
      ],
      "stateMutability": "view",
      "type": "function"
    },
    {
      "inputs": [],
      "name": "lastFeePercantege",
      "outputs": [
        {
          "internalType": "uint256",
          "name": "",
          "type": "uint256"
        }
      ],
      "stateMutability": "view",
      "type": "function"
    },
    {
      "inputs": [
        {
          "internalType": "uint256",
          "name": "",
          "type": "uint256"
        }
      ],
      "name": "masterchefAddress",
      "outputs": [
        {
          "internalType": "address",
          "name": "",
          "type": "address"
        }
      ],
      "stateMutability": "view",
      "type": "function"
    },
    {
      "inputs": [],
      "name": "owner",
      "outputs": [
        {
          "internalType": "address payable",
          "name": "",
          "type": "address"
        }
      ],
      "stateMutability": "view",
      "type": "function"
    },
    {
      "inputs": [],
      "name": "platformOwner",
      "outputs": [
        {
          "internalType": "address payable",
          "name": "",
          "type": "address"
        }
      ],
      "stateMutability": "view",
      "type": "function"
    },
    {
      "inputs": [],
      "name": "proWallet",
      "outputs": [
        {
          "internalType": "address payable",
          "name": "",
          "type": "address"
        }
      ],
      "stateMutability": "view",
      "type": "function"
    },
    {
      "inputs": [],
      "name": "referrer",
      "outputs": [
        {
          "internalType": "address payable",
          "name": "",
          "type": "address"
        }
      ],
      "stateMutability": "view",
      "type": "function"
    },
    {
      "inputs": [
        {
          "internalType": "uint256",
          "name": "_protocolId",
          "type": "uint256"
        },
        {
          "internalType": "address",
          "name": "_tokenA",
          "type": "address"
        },
        {
          "internalType": "address",
          "name": "_tokenB",
          "type": "address"
        },
        {
          "internalType": "uint256",
          "name": "_liquidity",
          "type": "uint256"
        },
        {
          "internalType": "uint256",
          "name": "_amountAMin",
          "type": "uint256"
        },
        {
          "internalType": "uint256",
          "name": "_amountBMin",
          "type": "uint256"
        }
      ],
      "name": "removeLiquidity",
      "outputs": [],
      "stateMutability": "nonpayable",
      "type": "function"
    },
    {
      "inputs": [
        {
          "internalType": "uint256",
          "name": "_protocolId",
          "type": "uint256"
        },
        {
          "internalType": "address",
          "name": "_token",
          "type": "address"
        },
        {
          "internalType": "address",
          "name": "_lpToken",
          "type": "address"
        },
        {
          "internalType": "uint256",
          "name": "_liquidity",
          "type": "uint256"
        },
        {
          "internalType": "uint256",
          "name": "_amountTokenMin",
          "type": "uint256"
        },
        {
          "internalType": "uint256",
          "name": "_amountETHMin",
          "type": "uint256"
        }
      ],
      "name": "removeLiquidityETH",
      "outputs": [],
      "stateMutability": "nonpayable",
      "type": "function"
    },
    {
      "inputs": [
        {
          "internalType": "uint256",
          "name": "",
          "type": "uint256"
        }
      ],
      "name": "rewardTokenAddress",
      "outputs": [
        {
          "internalType": "address",
          "name": "",
          "type": "address"
        }
      ],
      "stateMutability": "view",
      "type": "function"
    },
    {
      "inputs": [
        {
          "internalType": "uint256",
          "name": "",
          "type": "uint256"
        }
      ],
      "name": "routerAddress",
      "outputs": [
        {
          "internalType": "address",
          "name": "",
          "type": "address"
        }
      ],
      "stateMutability": "view",
      "type": "function"
    },
    {
      "inputs": [
        {
          "internalType": "address payable",
          "name": "_platformOnwer",
          "type": "address"
        }
      ],
      "name": "setPlatformOwner",
      "outputs": [],
      "stateMutability": "nonpayable",
      "type": "function"
    },
    {
      "inputs": [],
      "name": "stakingWallet",
      "outputs": [
        {
          "internalType": "address payable",
          "name": "",
          "type": "address"
        }
      ],
      "stateMutability": "view",
      "type": "function"
    },
    {
      "inputs": [
        {
          "internalType": "uint256",
          "name": "_protocolId",
          "type": "uint256"
        },
        {
          "internalType": "uint256",
          "name": "_amountIn",
          "type": "uint256"
        },
        {
          "internalType": "uint256",
          "name": "_amountOutMin",
          "type": "uint256"
        },
        {
          "internalType": "address[]",
          "name": "_path",
          "type": "address[]"
        }
      ],
      "name": "swapExactETHforToken",
      "outputs": [
        {
          "internalType": "uint256[]",
          "name": "amounts",
          "type": "uint256[]"
        }
      ],
      "stateMutability": "nonpayable",
      "type": "function"
    },
    {
      "inputs": [
        {
          "internalType": "uint256",
          "name": "_protocolId",
          "type": "uint256"
        },
        {
          "internalType": "address",
          "name": "_token",
          "type": "address"
        },
        {
          "internalType": "uint256",
          "name": "_amountIn",
          "type": "uint256"
        },
        {
          "internalType": "uint256",
          "name": "_amountOutMin",
          "type": "uint256"
        },
        {
          "internalType": "address[]",
          "name": "_path",
          "type": "address[]"
        }
      ],
      "name": "swapExactTokenforToken",
      "outputs": [
        {
          "internalType": "uint256[]",
          "name": "amounts",
          "type": "uint256[]"
        }
      ],
      "stateMutability": "nonpayable",
      "type": "function"
    },
    {
      "inputs": [
        {
          "internalType": "uint256",
          "name": "_protocolId",
          "type": "uint256"
        },
        {
          "internalType": "address",
          "name": "_token",
          "type": "address"
        },
        {
          "internalType": "uint256",
          "name": "_amountIn",
          "type": "uint256"
        },
        {
          "internalType": "uint256",
          "name": "_amountOutMin",
          "type": "uint256"
        },
        {
          "internalType": "address[]",
          "name": "_path",
          "type": "address[]"
        }
      ],
      "name": "swapExactTokensForETH",
      "outputs": [
        {
          "internalType": "uint256[]",
          "name": "amounts",
          "type": "uint256[]"
        }
      ],
      "stateMutability": "nonpayable",
      "type": "function"
    },
    {
      "inputs": [
        {
          "internalType": "address",
          "name": "user",
          "type": "address"
        }
      ],
      "name": "toggleDepositLock",
      "outputs": [],
      "stateMutability": "nonpayable",
      "type": "function"
    },
    {
      "inputs": [
        {
          "internalType": "uint256",
          "name": "",
          "type": "uint256"
        }
      ],
      "name": "tokenDeposited",
      "outputs": [
        {
          "internalType": "address",
          "name": "",
          "type": "address"
        }
      ],
      "stateMutability": "view",
      "type": "function"
    },
    {
      "inputs": [],
      "name": "tokenDepositedLength",
      "outputs": [
        {
          "internalType": "uint256",
          "name": "length",
          "type": "uint256"
        }
      ],
      "stateMutability": "view",
      "type": "function"
    },
    {
      "inputs": [
        {
          "internalType": "address",
          "name": "",
          "type": "address"
        }
      ],
      "name": "userLocked",
      "outputs": [
        {
          "internalType": "bool",
          "name": "",
          "type": "bool"
        }
      ],
      "stateMutability": "view",
      "type": "function"
    },
    {
      "inputs": [
        {
          "components": [
            {
              "internalType": "uint256",
              "name": "_protocolId",
              "type": "uint256"
            },
            {
              "internalType": "uint256",
              "name": "_poolId",
              "type": "uint256"
            },
            {
              "internalType": "uint256",
              "name": "_amount",
              "type": "uint256"
            },
            {
              "internalType": "uint256",
              "name": "_controllerFee",
              "type": "uint256"
            },
            {
              "internalType": "uint256",
              "name": "_protocolFee",
              "type": "uint256"
            },
            {
              "internalType": "uint256",
              "name": "_proFee",
              "type": "uint256"
            },
            {
              "internalType": "uint256",
              "name": "_referrerFee",
              "type": "uint256"
            },
            {
              "internalType": "uint256",
              "name": "_charityFee",
              "type": "uint256"
            },
            {
              "internalType": "uint256",
              "name": "_stakingFee",
              "type": "uint256"
            }
          ],
          "internalType": "struct StrategyFTM.withdrawFromFarmStruct",
          "name": "withdrawStruct",
          "type": "tuple"
        }
      ],
      "name": "withdrawFromFarm",
      "outputs": [
        {
          "internalType": "uint256",
          "name": "amountAfterFees",
          "type": "uint256"
        }
      ],
      "stateMutability": "nonpayable",
      "type": "function"
    },
    {
      "inputs": [
        {
          "internalType": "address",
          "name": "_tokenAddress",
          "type": "address"
        },
        {
          "internalType": "uint256",
          "name": "_amount",
          "type": "uint256"
        }
      ],
      "name": "withdrawFunds",
      "outputs": [],
      "stateMutability": "nonpayable",
      "type": "function"
    },
    {
      "inputs": [
        {
          "internalType": "uint256",
          "name": "_amount",
          "type": "uint256"
        }
      ],
      "name": "withdrawFundsETH",
      "outputs": [],
      "stateMutability": "nonpayable",
      "type": "function"
    },
    {
      "stateMutability": "payable",
      "type": "receive"
    }
  ],
  "bytecode": "0x60806040523480156200001157600080fd5b5060405162003fee38038062003fee833981016040819052620000349162000423565b89518b5114801562000047575088518b51145b801562000055575087518b51145b620000a65760405162461bcd60e51b815260206004820152601b60248201527f506172616d6574657273206e6f7420657175616c206c656e6774680000000000604482015260640160405180910390fd5b60005b8b5181101562000216578a8181518110620000c857620000c862000578565b60200260200101516000808e8481518110620000e857620000e862000578565b6020026020010151815260200190815260200160002060006101000a8154816001600160a01b0302191690836001600160a01b0316021790555089818151811062000137576200013762000578565b6020026020010151600260008e848151811062000158576200015862000578565b6020026020010151815260200190815260200160002060006101000a8154816001600160a01b0302191690836001600160a01b03160217905550888181518110620001a757620001a762000578565b6020026020010151600360008e8481518110620001c857620001c862000578565b6020026020010151815260200190815260200160002060006101000a8154816001600160a01b0302191690836001600160a01b03160217905550806200020e906200058e565b9050620000a9565b5060068054336001600160a01b0319918216179091556009805482166001600160a01b03998a16179055600a805482169789169790971790965560078054871694881694909417909355600b8054861692871692909217909155600d8054851692861692909217909155600c8054841691851691909117905560088054909216921691909117905550620005b892505050565b634e487b7160e01b600052604160045260246000fd5b604051601f8201601f191681016001600160401b0381118282101715620002ea57620002ea620002a9565b604052919050565b60006001600160401b038211156200030e576200030e620002a9565b5060051b60200190565b600082601f8301126200032a57600080fd5b81516020620003436200033d83620002f2565b620002bf565b82815260059290921b840181019181810190868411156200036357600080fd5b8286015b8481101562000380578051835291830191830162000367565b509695505050505050565b6001600160a01b0381168114620003a157600080fd5b50565b600082601f830112620003b657600080fd5b81516020620003c96200033d83620002f2565b82815260059290921b84018101918181019086841115620003e957600080fd5b8286015b848110156200038057805162000403816200038b565b8352918301918301620003ed565b80516200041e816200038b565b919050565b60008060008060008060008060008060006101608c8e0312156200044657600080fd5b8b516001600160401b038111156200045d57600080fd5b6200046b8e828f0162000318565b60208e0151909c5090506001600160401b038111156200048a57600080fd5b620004988e828f01620003a4565b60408e0151909b5090506001600160401b03811115620004b757600080fd5b620004c58e828f01620003a4565b60608e0151909a5090506001600160401b03811115620004e457600080fd5b620004f28e828f01620003a4565b9850506200050360808d0162000411565b96506200051360a08d0162000411565b95506200052360c08d0162000411565b94506200053360e08d0162000411565b9350620005446101008d0162000411565b9250620005556101208d0162000411565b9150620005666101408d0162000411565b90509295989b509295989b9093969950565b634e487b7160e01b600052603260045260246000fd5b6000600019821415620005b157634e487b7160e01b600052601160045260246000fd5b5060010190565b613a2680620005c86000396000f3fe6080604052600436106101ef5760003560e01c80637039c24a1161010c578063a66a735e1161009a578063bba053841161006c578063bba053841461060f578063c10753291461064f578063d4580e3e1461066f578063e02367b41461068f578063f25f4b56146106af57005b8063a66a735e1461058f578063a83a6132146105af578063ab00c43e146105cf578063ae1975dc146105ef57005b80638e9068e6116100de5780638e9068e6146104c3578063961095c5146104e35780639920dedb146105035780639a3771a314610523578063a04403271461055957005b80637039c24a146104505780637b2087691461046357806389189cb8146104835780638da5cb5b146104a357005b80634bfe642d116101895780635930a0a11161015b5780635930a0a11461038d5780635bb7ae60146103c357806364481e25146103f057806366551c251461041057806368447c931461043057005b80634bfe642d146103185780634df8ccb11461033857806354daabc31461035857806356264e321461037857005b80631beed26c116101c25780631beed26c146102af5780631f276b6e146102cf5780633db9a65e146102ef57806344e544871461030557005b80620c9fd5146101f8578063050915b21461024b57806306ee6ad81461026f5780630fc6b7131461028f57005b366101f657005b005b34801561020457600080fd5b5061022e61021336600461333e565b6001602052600090815260409020546001600160a01b031681565b6040516001600160a01b0390911681526020015b60405180910390f35b34801561025757600080fd5b5061026160055481565b604051908152602001610242565b34801561027b57600080fd5b50600c5461022e906001600160a01b031681565b34801561029b57600080fd5b506101f66102aa36600461336f565b6106cf565b3480156102bb57600080fd5b506101f66102ca3660046133a4565b61093e565b3480156102db57600080fd5b506101f66102ea366004613409565b610b3b565b3480156102fb57600080fd5b5061026160045481565b6101f661031336600461336f565b610bc2565b34801561032457600080fd5b50600d5461022e906001600160a01b031681565b34801561034457600080fd5b5060095461022e906001600160a01b031681565b34801561036457600080fd5b506101f661037336600461342b565b610d24565b34801561038457600080fd5b50600e54610261565b34801561039957600080fd5b5061022e6103a836600461333e565b6003602052600090815260409020546001600160a01b031681565b3480156103cf57600080fd5b506103e36103de36600461349b565b610d5d565b604051610242919061350e565b3480156103fc57600080fd5b506103e361040b36600461349b565b610e9d565b34801561041c57600080fd5b506103e361042b366004613552565b610f6a565b34801561043c57600080fd5b50600a5461022e906001600160a01b031681565b6101f661045e3660046135b3565b611023565b34801561046f57600080fd5b50600b5461022e906001600160a01b031681565b34801561048f57600080fd5b506101f661049e36600461333e565b61115d565b3480156104af57600080fd5b5060065461022e906001600160a01b031681565b3480156104cf57600080fd5b506101f66104de36600461342b565b6111e7565b3480156104ef57600080fd5b506101f66104fe366004613603565b611227565b34801561050f57600080fd5b5060085461022e906001600160a01b031681565b34801561052f57600080fd5b5061022e61053e36600461333e565b6000602081905290815260409020546001600160a01b031681565b34801561056557600080fd5b5061022e61057436600461333e565b6002602052600090815260409020546001600160a01b031681565b34801561059b57600080fd5b506101f66105aa36600461365f565b61130e565b3480156105bb57600080fd5b506101f66105ca366004613409565b611418565b3480156105db57600080fd5b5061022e6105ea36600461333e565b611473565b3480156105fb57600080fd5b506101f661060a366004613603565b61149d565b34801561061b57600080fd5b5061063f61062a36600461342b565b600f6020526000908152604090205460ff1681565b6040519015158152602001610242565b34801561065b57600080fd5b506101f661066a36600461369c565b611588565b34801561067b57600080fd5b5061026161068a3660046136c8565b611659565b34801561069b57600080fd5b506102616106aa3660046136c8565b6124ec565b3480156106bb57600080fd5b5060075461022e906001600160a01b031681565b6006546001600160a01b031633146106e657600080fd5b600082116107365760405162461bcd60e51b815260206004820152601860248201527704572726f723a20616d6f756e742063616e277420626520360441b60448201526064015b60405180910390fd5b336000908152600f602052604090205460ff161561078c5760405162461bcd60e51b8152602060048201526013602482015272155cd95c8818d85b9b9bdd0819195c1bdcda5d606a1b604482015260640161072d565b6040516323b872dd60e01b8152336004820152306024820152604481018390526001600160a01b038416906323b872dd906064016020604051808303816000875af11580156107df573d6000803e3d6000fd5b505050506040513d601f19601f8201168201806040525081019061080391906136e1565b50600e805460018101825560009182527fbb7b4a454dc3493923482f07822329ed19e8244eff582cc204f8554c3620c3fd0180546001600160a01b0319166001600160a01b0386161790558161085b61271085613719565b610865919061373b565b90506000610873828561375a565b60085460405163a9059cbb60e01b81529192506001600160a01b038088169263a9059cbb926108a89216908690600401613771565b6020604051808303816000875af11580156108c7573d6000803e3d6000fd5b505050506040513d601f19601f820116820180604052508101906108eb91906136e1565b5060065460408051838152602081018590526001600160a01b038881169316917f6427e0cea551d11a873721f5e4eb2e5ad031fca4c7b31e95a697ca91b8bd1feb91015b60405180910390a35050505050565b6009546001600160a01b0316331461095557600080fd5b6000878152602081905260409081902054905163095ea7b360e01b81526001600160a01b038881169263095ea7b39261099692909116908890600401613771565b6020604051808303816000875af11580156109b5573d6000803e3d6000fd5b505050506040513d601f19601f820116820180604052508101906109d991906136e1565b506000878152602081905260409081902054905163095ea7b360e01b81526001600160a01b038781169263095ea7b392610a1b92909116908790600401613771565b6020604051808303816000875af1158015610a3a573d6000803e3d6000fd5b505050506040513d601f19601f82011682018060405250810190610a5e91906136e1565b506000878152602081905260409020546001600160a01b031663e8e3370087878787878730610a8f4261025861378a565b60405160e08a901b6001600160e01b03191681526001600160a01b039889166004820152968816602488015260448701959095526064860193909352608485019190915260a484015290921660c482015260e4810191909152610104016060604051808303816000875af1158015610b0b573d6000803e3d6000fd5b505050506040513d601f19601f82011682018060405250810190610b2f91906137a2565b50505050505050505050565b6009546001600160a01b03163314610b5257600080fd5b60008281526002602052604090819020549051632989754760e11b8152600481018390526001600160a01b0390911690635312ea8e906024015b600060405180830381600087803b158015610ba657600080fd5b505af1158015610bba573d6000803e3d6000fd5b505050505050565b6006546001600160a01b03163314610bd957600080fd5b60008211610c245760405162461bcd60e51b815260206004820152601860248201527704572726f723a20616d6f756e742063616e277420626520360441b604482015260640161072d565b336000908152600f602052604090205460ff1615610c7a5760405162461bcd60e51b8152602060048201526013602482015272155cd95c8818d85b9b9bdd0819195c1bdcda5d606a1b604482015260640161072d565b600081610c8961271085613719565b610c93919061373b565b90506000610ca1828561375a565b6008546040519192506001600160a01b03169083156108fc029084906000818181858888f19350505050158015610cdc573d6000803e3d6000fd5b5060065460408051838152602081018590526001600160a01b038881169316917f142820add0a5d3e5ad3b4bf87784c72bd6b7767da6abad3ce6f8605f76243042910161092f565b6009546001600160a01b03163314610d3b57600080fd5b600980546001600160a01b0319166001600160a01b0392909216919091179055565b6009546060906001600160a01b03163314610d7757600080fd5b6000878152602081905260409081902054905163095ea7b360e01b81526001600160a01b038881169263095ea7b392610db892909116908990600401613771565b6020604051808303816000875af1158015610dd7573d6000803e3d6000fd5b505050506040513d601f19601f82011682018060405250810190610dfb91906136e1565b506000878152602081905260409020546001600160a01b03166318cbafe58686868630610e2a4261025861378a565b6040518763ffffffff1660e01b8152600401610e4b96959493929190613819565b6000604051808303816000875af1158015610e6a573d6000803e3d6000fd5b505050506040513d6000823e601f3d908101601f19168201604052610e92919081019061386d565b979650505050505050565b6009546060906001600160a01b03163314610eb757600080fd5b6000878152602081905260409081902054905163095ea7b360e01b81526001600160a01b038881169263095ea7b392610ef892909116908990600401613771565b6020604051808303816000875af1158015610f17573d6000803e3d6000fd5b505050506040513d601f19601f82011682018060405250810190610f3b91906136e1565b506000878152602081905260409020546001600160a01b03166338ed17398686868630610e2a4261025861378a565b6009546060906001600160a01b03163314610f8457600080fd5b6000868152602081905260409020546001600160a01b0316637ff36ab58686868630610fb24261025861378a565b6040518763ffffffff1660e01b8152600401610fd295949392919061392b565b60006040518083038185885af1158015610ff0573d6000803e3d6000fd5b50505050506040513d6000823e601f3d908101601f19168201604052611019919081019061386d565b9695505050505050565b6009546001600160a01b0316331461103a57600080fd5b6000868152602081905260409081902054905163095ea7b360e01b81526001600160a01b038781169263095ea7b39261107b92909116908890600401613771565b6020604051808303816000875af115801561109a573d6000803e3d6000fd5b505050506040513d601f19601f820116820180604052508101906110be91906136e1565b506000868152602081905260409020546001600160a01b031663f305d7198487878686306110ee4261025861378a565b6040518863ffffffff1660e01b815260040161110f96959493929190613962565b60606040518083038185885af115801561112d573d6000803e3d6000fd5b50505050506040513d601f19601f8201168201806040525081019061115291906137a2565b505050505050505050565b6006546001600160a01b0316331461117457600080fd5b604051339082156108fc029083906000818181858888f193505050501580156111a1573d6000803e3d6000fd5b506006546040518281526001600160a01b03909116907fe380c5053d453e29c6d6fa8b52f48bc3266a7bbd0f19004b711f53e5e9bd0f759060200160405180910390a250565b6009546001600160a01b031633146111fe57600080fd5b6001600160a01b03166000908152600f60205260409020805460ff19811660ff90911615179055565b6009546001600160a01b0316331461123e57600080fd5b6000868152602081905260409020546001600160a01b031663baa2abde86868686863061126d4261025861378a565b60405160e089901b6001600160e01b03191681526001600160a01b039788166004820152958716602487015260448601949094526064850192909252608484015290921660a482015260c481019190915260e4015b60408051808303816000875af11580156112e0573d6000803e3d6000fd5b505050506040513d601f19601f82011682018060405250810190611304919061399d565b5050505050505050565b6009546001600160a01b0316331461132557600080fd5b6000848152600260205260409081902054905163095ea7b360e01b81526001600160a01b038581169263095ea7b39261136692909116908590600401613771565b6020604051808303816000875af1158015611385573d6000803e3d6000fd5b505050506040513d601f19601f820116820180604052508101906113a991906136e1565b5060008481526002602052604090819020549051631c57762b60e31b815260048101849052602481018390526001600160a01b039091169063e2bbb15890604401600060405180830381600087803b15801561140457600080fd5b505af1158015611304573d6000803e3d6000fd5b6009546001600160a01b0316331461142f57600080fd5b600082815260026020526040908190205490516302f940c760e41b8152600481018390523060248201526001600160a01b0390911690632f940c7090604401610b8c565b600e818154811061148357600080fd5b6000918252602090912001546001600160a01b0316905081565b6009546001600160a01b031633146114b457600080fd5b6000868152602081905260409081902054905163095ea7b360e01b81526001600160a01b038681169263095ea7b3926114f592909116908790600401613771565b6020604051808303816000875af1158015611514573d6000803e3d6000fd5b505050506040513d601f19601f8201168201806040525081019061153891906136e1565b506000868152602081905260409020546001600160a01b03166302751cec86858585306115674261025861378a565b6040518763ffffffff1660e01b81526004016112c296959493929190613962565b6006546001600160a01b0316331461159f57600080fd5b60405163a9059cbb60e01b81526001600160a01b0383169063a9059cbb906115cd9033908590600401613771565b6020604051808303816000875af11580156115ec573d6000803e3d6000fd5b505050506040513d601f19601f8201168201806040525081019061161091906136e1565b506006546040518281526001600160a01b038481169216907fa92ff919b850e4909ab2261d907ef955f11bc1716733a6cbece38d163a69af8a9060200160405180910390a35050565b6009546000906001600160a01b0316331461167357600080fd5b60008235611709578235600090815260026020908152604091829020549151631778809f60e01b81529085013560048201523060248201526001600160a01b0390911690631778809f906044015b602060405180830381865afa1580156116de573d6000803e3d6000fd5b505050506040513d601f19601f8201168201806040525081019061170291906139c1565b90506117f0565b60018335141561175d57823560009081526002602090815260409182902054915163a279b07f60e01b81529085013560048201523060248201526001600160a01b039091169063a279b07f906044016116c1565b6002833514156117f057823560009081526002602090815260409182902054915163a279b07f60e01b81529085013560048201523060248201526001600160a01b039091169063a279b07f90604401602060405180830381865afa1580156117c9573d6000803e3d6000fd5b505050506040513d601f19601f820116820180604052508101906117ed91906139c1565b90505b6040805160018082528183019092526000916020808301908036833701905050905083602001358160008151811061182a5761182a6139da565b60209081029190910181019190915284356000908152600290915260409081902054905163218e0f7360e01b81526001600160a01b039091169063218e0f739061187890849060040161350e565b600060405180830381600087803b15801561189257600080fd5b505af11580156118a6573d6000803e3d6000fd5b5060009250505060608501356118be61271085613719565b6118c8919061373b565b85356000908152600360205260409081902054600854915163a9059cbb60e01b81529293506001600160a01b039081169263a9059cbb9261190f9216908590600401613771565b6020604051808303816000875af115801561192e573d6000803e3d6000fd5b505050506040513d601f19601f8201168201806040525081019061195291906136e1565b50600061195f828561375a565b600d549091506001600160a01b0316611e54576000608087013561198561271084613719565b61198f919061373b565b905061199b818361375a565b600a549092506001600160a01b0316611ba657600060e08801356119c161271084613719565b6119cb919061373b565b905060006101008901356119e161271085613719565b6119eb919061373b565b9050806119f8838561375a565b611a02919061375a565b89356000908152600360205260409081902054600754915163a9059cbb60e01b81529295506001600160a01b039081169263a9059cbb92611a499216908790600401613771565b6020604051808303816000875af1158015611a68573d6000803e3d6000fd5b505050506040513d601f19601f82011682018060405250810190611a8c91906136e1565b5088356000908152600360205260409081902054600b54915163a9059cbb60e01b81526001600160a01b039182169263a9059cbb92611ad2929116908690600401613771565b6020604051808303816000875af1158015611af1573d6000803e3d6000fd5b505050506040513d601f19601f82011682018060405250810190611b1591906136e1565b5088356000908152600360205260409081902054600c54915163a9059cbb60e01b81526001600160a01b039182169263a9059cbb92611b5b929116908590600401613771565b6020604051808303816000875af1158015611b7a573d6000803e3d6000fd5b505050506040513d601f19601f82011682018060405250810190611b9e91906136e1565b505050611e4e565b600060e0880135611bb961271084613719565b611bc3919061373b565b90506000610100890135611bd961271085613719565b611be3919061373b565b9050600060c08a0135611bf861271086613719565b611c02919061373b565b90508082611c10858761375a565b611c1a919061375a565b611c24919061375a565b8a356000908152600360205260409081902054600754915163a9059cbb60e01b81529296506001600160a01b039081169263a9059cbb92611c6b9216908890600401613771565b6020604051808303816000875af1158015611c8a573d6000803e3d6000fd5b505050506040513d601f19601f82011682018060405250810190611cae91906136e1565b5089356000908152600360205260409081902054600b54915163a9059cbb60e01b81526001600160a01b039182169263a9059cbb92611cf4929116908790600401613771565b6020604051808303816000875af1158015611d13573d6000803e3d6000fd5b505050506040513d601f19601f82011682018060405250810190611d3791906136e1565b5089356000908152600360205260409081902054600c54915163a9059cbb60e01b81526001600160a01b039182169263a9059cbb92611d7d929116908690600401613771565b6020604051808303816000875af1158015611d9c573d6000803e3d6000fd5b505050506040513d601f19601f82011682018060405250810190611dc091906136e1565b5089356000908152600360205260409081902054600a54915163a9059cbb60e01b81526001600160a01b039182169263a9059cbb92611e06929116908590600401613771565b6020604051808303816000875af1158015611e25573d6000803e3d6000fd5b505050506040513d601f19601f82011682018060405250810190611e4991906136e1565b505050505b5061249c565b60006080870135611e6761271084613719565b611e71919061373b565b9050611e7d818361375a565b600a549092506001600160a01b031661213d57600060a0880135611ea361271084613719565b611ead919061373b565b9050611eb9818361375a565b88356000908152600360205260409081902054600d54915163a9059cbb60e01b81529294506001600160a01b039081169263a9059cbb92611f009216908590600401613771565b6020604051808303816000875af1158015611f1f573d6000803e3d6000fd5b505050506040513d601f19601f82011682018060405250810190611f4391906136e1565b50600060e0890135611f5761271085613719565b611f61919061373b565b905060006101008a0135611f7761271086613719565b611f81919061373b565b905080611f8e838661375a565b611f98919061375a565b8a356000908152600360205260409081902054600754915163a9059cbb60e01b81529296506001600160a01b039081169263a9059cbb92611fdf9216908890600401613771565b6020604051808303816000875af1158015611ffe573d6000803e3d6000fd5b505050506040513d601f19601f8201168201806040525081019061202291906136e1565b5089356000908152600360205260409081902054600b54915163a9059cbb60e01b81526001600160a01b039182169263a9059cbb92612068929116908690600401613771565b6020604051808303816000875af1158015612087573d6000803e3d6000fd5b505050506040513d601f19601f820116820180604052508101906120ab91906136e1565b5089356000908152600360205260409081902054600c54915163a9059cbb60e01b81526001600160a01b039182169263a9059cbb926120f1929116908590600401613771565b6020604051808303816000875af1158015612110573d6000803e3d6000fd5b505050506040513d601f19601f8201168201806040525081019061213491906136e1565b5050505061249a565b600060a088013561215061271084613719565b61215a919061373b565b9050612166818361375a565b88356000908152600360205260409081902054600d54915163a9059cbb60e01b81529294506001600160a01b039081169263a9059cbb926121ad9216908590600401613771565b6020604051808303816000875af11580156121cc573d6000803e3d6000fd5b505050506040513d601f19601f820116820180604052508101906121f091906136e1565b50600060e089013561220461271085613719565b61220e919061373b565b905060006101008a013561222461271086613719565b61222e919061373b565b9050600060c08b013561224361271087613719565b61224d919061373b565b9050808261225b858861375a565b612265919061375a565b61226f919061375a565b8b356000908152600360205260409081902054600754915163a9059cbb60e01b81529297506001600160a01b039081169263a9059cbb926122b69216908990600401613771565b6020604051808303816000875af11580156122d5573d6000803e3d6000fd5b505050506040513d601f19601f820116820180604052508101906122f991906136e1565b508a356000908152600360205260409081902054600b54915163a9059cbb60e01b81526001600160a01b039182169263a9059cbb9261233f929116908790600401613771565b6020604051808303816000875af115801561235e573d6000803e3d6000fd5b505050506040513d601f19601f8201168201806040525081019061238291906136e1565b508a356000908152600360205260409081902054600c54915163a9059cbb60e01b81526001600160a01b039182169263a9059cbb926123c8929116908690600401613771565b6020604051808303816000875af11580156123e7573d6000803e3d6000fd5b505050506040513d601f19601f8201168201806040525081019061240b91906136e1565b508a356000908152600360205260409081902054600a54915163a9059cbb60e01b81526001600160a01b039182169263a9059cbb92612451929116908590600401613771565b6020604051808303816000875af1158015612470573d6000803e3d6000fd5b505050506040513d601f19601f8201168201806040525081019061249491906136e1565b50505050505b505b60065460405182815291955085916001600160a01b03909116907f06c5efeff5c320943d265dc4e5f1af95ad523555ce0c1957e367dda5514572df9060200160405180910390a250505050919050565b6009546000906001600160a01b0316331461250657600080fd5b6000823561259c578235600090815260026020908152604091829020549151631778809f60e01b81529085013560048201523060248201526001600160a01b0390911690631778809f906044015b602060405180830381865afa158015612571573d6000803e3d6000fd5b505050506040513d601f19601f8201168201806040525081019061259591906139c1565b9050612683565b6001833514156125f057823560009081526002602090815260409182902054915163a279b07f60e01b81529085013560048201523060248201526001600160a01b039091169063a279b07f90604401612554565b60028335141561268357823560009081526002602090815260409182902054915163a279b07f60e01b81529085013560048201523060248201526001600160a01b039091169063a279b07f90604401602060405180830381865afa15801561265c573d6000803e3d6000fd5b505050506040513d601f19601f8201168201806040525081019061268091906139c1565b90505b8235600090815260026020908152604091829020548251630441a3e760e41b81529186013560048301529185013560248201526001600160a01b039091169063441a3e7090604401600060405180830381600087803b1580156126e557600080fd5b505af11580156126f9573d6000803e3d6000fd5b50600092505050606084013561271161271084613719565b61271b919061373b565b84356000908152600360205260409081902054600854915163a9059cbb60e01b81529293506001600160a01b039081169263a9059cbb926127629216908590600401613771565b6020604051808303816000875af1158015612781573d6000803e3d6000fd5b505050506040513d601f19601f820116820180604052508101906127a591906136e1565b5060006127b2828461375a565b600d549091506001600160a01b0316612ca757600060808601356127d861271084613719565b6127e2919061373b565b90506127ee818361375a565b600a549092506001600160a01b03166129f957600060e087013561281461271084613719565b61281e919061373b565b9050600061010088013561283461271085613719565b61283e919061373b565b90508061284b838561375a565b612855919061375a565b88356000908152600360205260409081902054600754915163a9059cbb60e01b81529295506001600160a01b039081169263a9059cbb9261289c9216908790600401613771565b6020604051808303816000875af11580156128bb573d6000803e3d6000fd5b505050506040513d601f19601f820116820180604052508101906128df91906136e1565b5087356000908152600360205260409081902054600b54915163a9059cbb60e01b81526001600160a01b039182169263a9059cbb92612925929116908690600401613771565b6020604051808303816000875af1158015612944573d6000803e3d6000fd5b505050506040513d601f19601f8201168201806040525081019061296891906136e1565b5087356000908152600360205260409081902054600c54915163a9059cbb60e01b81526001600160a01b039182169263a9059cbb926129ae929116908590600401613771565b6020604051808303816000875af11580156129cd573d6000803e3d6000fd5b505050506040513d601f19601f820116820180604052508101906129f191906136e1565b505050612ca1565b600060e0870135612a0c61271084613719565b612a16919061373b565b90506000610100880135612a2c61271085613719565b612a36919061373b565b9050600060c0890135612a4b61271086613719565b612a55919061373b565b90508082612a63858761375a565b612a6d919061375a565b612a77919061375a565b89356000908152600360205260409081902054600754915163a9059cbb60e01b81529296506001600160a01b039081169263a9059cbb92612abe9216908890600401613771565b6020604051808303816000875af1158015612add573d6000803e3d6000fd5b505050506040513d601f19601f82011682018060405250810190612b0191906136e1565b5088356000908152600360205260409081902054600b54915163a9059cbb60e01b81526001600160a01b039182169263a9059cbb92612b47929116908790600401613771565b6020604051808303816000875af1158015612b66573d6000803e3d6000fd5b505050506040513d601f19601f82011682018060405250810190612b8a91906136e1565b5088356000908152600360205260409081902054600c54915163a9059cbb60e01b81526001600160a01b039182169263a9059cbb92612bd0929116908690600401613771565b6020604051808303816000875af1158015612bef573d6000803e3d6000fd5b505050506040513d601f19601f82011682018060405250810190612c1391906136e1565b5088356000908152600360205260409081902054600a54915163a9059cbb60e01b81526001600160a01b039182169263a9059cbb92612c59929116908590600401613771565b6020604051808303816000875af1158015612c78573d6000803e3d6000fd5b505050506040513d601f19601f82011682018060405250810190612c9c91906136e1565b505050505b506132ef565b60006080860135612cba61271084613719565b612cc4919061373b565b9050612cd0818361375a565b600a549092506001600160a01b0316612f9057600060a0870135612cf661271084613719565b612d00919061373b565b9050612d0c818361375a565b87356000908152600360205260409081902054600d54915163a9059cbb60e01b81529294506001600160a01b039081169263a9059cbb92612d539216908590600401613771565b6020604051808303816000875af1158015612d72573d6000803e3d6000fd5b505050506040513d601f19601f82011682018060405250810190612d9691906136e1565b50600060e0880135612daa61271085613719565b612db4919061373b565b90506000610100890135612dca61271086613719565b612dd4919061373b565b905080612de1838661375a565b612deb919061375a565b89356000908152600360205260409081902054600754915163a9059cbb60e01b81529296506001600160a01b039081169263a9059cbb92612e329216908890600401613771565b6020604051808303816000875af1158015612e51573d6000803e3d6000fd5b505050506040513d601f19601f82011682018060405250810190612e7591906136e1565b5088356000908152600360205260409081902054600b54915163a9059cbb60e01b81526001600160a01b039182169263a9059cbb92612ebb929116908690600401613771565b6020604051808303816000875af1158015612eda573d6000803e3d6000fd5b505050506040513d601f19601f82011682018060405250810190612efe91906136e1565b5088356000908152600360205260409081902054600c54915163a9059cbb60e01b81526001600160a01b039182169263a9059cbb92612f44929116908590600401613771565b6020604051808303816000875af1158015612f63573d6000803e3d6000fd5b505050506040513d601f19601f82011682018060405250810190612f8791906136e1565b505050506132ed565b600060a0870135612fa361271084613719565b612fad919061373b565b9050612fb9818361375a565b87356000908152600360205260409081902054600d54915163a9059cbb60e01b81529294506001600160a01b039081169263a9059cbb926130009216908590600401613771565b6020604051808303816000875af115801561301f573d6000803e3d6000fd5b505050506040513d601f19601f8201168201806040525081019061304391906136e1565b50600060e088013561305761271085613719565b613061919061373b565b9050600061010089013561307761271086613719565b613081919061373b565b9050600060c08a013561309661271087613719565b6130a0919061373b565b905080826130ae858861375a565b6130b8919061375a565b6130c2919061375a565b8a356000908152600360205260409081902054600754915163a9059cbb60e01b81529297506001600160a01b039081169263a9059cbb926131099216908990600401613771565b6020604051808303816000875af1158015613128573d6000803e3d6000fd5b505050506040513d601f19601f8201168201806040525081019061314c91906136e1565b5089356000908152600360205260409081902054600b54915163a9059cbb60e01b81526001600160a01b039182169263a9059cbb92613192929116908790600401613771565b6020604051808303816000875af11580156131b1573d6000803e3d6000fd5b505050506040513d601f19601f820116820180604052508101906131d591906136e1565b5089356000908152600360205260409081902054600c54915163a9059cbb60e01b81526001600160a01b039182169263a9059cbb9261321b929116908690600401613771565b6020604051808303816000875af115801561323a573d6000803e3d6000fd5b505050506040513d601f19601f8201168201806040525081019061325e91906136e1565b5089356000908152600360205260409081902054600a54915163a9059cbb60e01b81526001600160a01b039182169263a9059cbb926132a4929116908590600401613771565b6020604051808303816000875af11580156132c3573d6000803e3d6000fd5b505050506040513d601f19601f820116820180604052508101906132e791906136e1565b50505050505b505b60065460405182815291945084916001600160a01b03909116907f06c5efeff5c320943d265dc4e5f1af95ad523555ce0c1957e367dda5514572df9060200160405180910390a2505050919050565b60006020828403121561335057600080fd5b5035919050565b6001600160a01b038116811461336c57600080fd5b50565b60008060006060848603121561338457600080fd5b833561338f81613357565b95602085013595506040909401359392505050565b600080600080600080600060e0888a0312156133bf57600080fd5b8735965060208801356133d181613357565b955060408801356133e181613357565b969995985095966060810135965060808101359560a0820135955060c0909101359350915050565b6000806040838503121561341c57600080fd5b50508035926020909101359150565b60006020828403121561343d57600080fd5b813561344881613357565b9392505050565b60008083601f84011261346157600080fd5b50813567ffffffffffffffff81111561347957600080fd5b6020830191508360208260051b850101111561349457600080fd5b9250929050565b60008060008060008060a087890312156134b457600080fd5b8635955060208701356134c681613357565b94506040870135935060608701359250608087013567ffffffffffffffff8111156134f057600080fd5b6134fc89828a0161344f565b979a9699509497509295939492505050565b6020808252825182820181905260009190848201906040850190845b818110156135465783518352928401929184019160010161352a565b50909695505050505050565b60008060008060006080868803121561356a57600080fd5b853594506020860135935060408601359250606086013567ffffffffffffffff81111561359657600080fd5b6135a28882890161344f565b969995985093965092949392505050565b60008060008060008060c087890312156135cc57600080fd5b8635955060208701356135de81613357565b95989597505050506040840135936060810135936080820135935060a0909101359150565b60008060008060008060c0878903121561361c57600080fd5b86359550602087013561362e81613357565b9450604087013561363e81613357565b959894975094956060810135955060808101359460a0909101359350915050565b6000806000806080858703121561367557600080fd5b84359350602085013561368781613357565b93969395505050506040820135916060013590565b600080604083850312156136af57600080fd5b82356136ba81613357565b946020939093013593505050565b600061012082840312156136db57600080fd5b50919050565b6000602082840312156136f357600080fd5b8151801515811461344857600080fd5b634e487b7160e01b600052601160045260246000fd5b60008261373657634e487b7160e01b600052601260045260246000fd5b500490565b600081600019048311821515161561375557613755613703565b500290565b60008282101561376c5761376c613703565b500390565b6001600160a01b03929092168252602082015260400190565b6000821982111561379d5761379d613703565b500190565b6000806000606084860312156137b757600080fd5b8351925060208401519150604084015190509250925092565b8183526000602080850194508260005b8581101561380e5781356137f381613357565b6001600160a01b0316875295820195908201906001016137e0565b509495945050505050565b86815285602082015260a06040820152600061383960a0830186886137d0565b6001600160a01b039490941660608301525060800152949350505050565b634e487b7160e01b600052604160045260246000fd5b6000602080838503121561388057600080fd5b825167ffffffffffffffff8082111561389857600080fd5b818501915085601f8301126138ac57600080fd5b8151818111156138be576138be613857565b8060051b604051601f19603f830116810181811085821117156138e3576138e3613857565b60405291825284820192508381018501918883111561390157600080fd5b938501935b8285101561391f57845184529385019392850192613906565b98975050505050505050565b8581526080602082015260006139456080830186886137d0565b6001600160a01b0394909416604083015250606001529392505050565b6001600160a01b039687168152602081019590955260408501939093526060840191909152909216608082015260a081019190915260c00190565b600080604083850312156139b057600080fd5b505080516020909101519092909150565b6000602082840312156139d357600080fd5b5051919050565b634e487b7160e01b600052603260045260246000fdfea264697066735822122050da774d3f00552a31b77033ee74680da8bf6030437dcda642993bad83a4404064736f6c634300080c0033",
  "linkReferences": {},
  "deployedLinkReferences": {}
}