{
  "_format": "hh-sol-artifact-1",
  "contractName": "Strategy",
  "sourceName": "contracts/Strategy.sol",
  "abi": [
    {
      "anonymous": false,
      "inputs": [
        {
          "indexed": false,
          "internalType": "address",
          "name": "_tokenAddress",
          "type": "address"
        },
        {
          "indexed": false,
          "internalType": "uint256",
          "name": "_amount",
          "type": "uint256"
        }
      ],
      "name": "DepositMadeToContract",
      "type": "event"
    },
    {
      "anonymous": false,
      "inputs": [
        {
          "indexed": false,
          "internalType": "address",
          "name": "_tokenAddress",
          "type": "address"
        }
      ],
      "name": "DepositMadeToFarm",
      "type": "event"
    },
    {
      "inputs": [
        {
          "internalType": "address",
          "name": "tokenA",
          "type": "address"
        },
        {
          "internalType": "address",
          "name": "tokenB",
          "type": "address"
        },
        {
          "internalType": "uint256",
          "name": "amountADesired",
          "type": "uint256"
        },
        {
          "internalType": "uint256",
          "name": "amountBDesired",
          "type": "uint256"
        },
        {
          "internalType": "uint256",
          "name": "amountAMin",
          "type": "uint256"
        },
        {
          "internalType": "uint256",
          "name": "amountBMin",
          "type": "uint256"
        }
      ],
      "name": "createLP",
      "outputs": [],
      "stateMutability": "nonpayable",
      "type": "function"
    },
    {
      "inputs": [
        {
          "internalType": "address",
          "name": "_tokenAddress",
          "type": "address"
        },
        {
          "internalType": "uint256",
          "name": "_amount",
          "type": "uint256"
        }
      ],
      "name": "depositFunds",
      "outputs": [],
      "stateMutability": "nonpayable",
      "type": "function"
    },
    {
      "inputs": [
        {
          "internalType": "uint256",
          "name": "amountIn",
          "type": "uint256"
        },
        {
          "internalType": "address[]",
          "name": "path",
          "type": "address[]"
        }
      ],
      "name": "getAmountsOut",
      "outputs": [
        {
          "internalType": "uint256[]",
          "name": "amounts",
          "type": "uint256[]"
        }
      ],
      "stateMutability": "view",
      "type": "function"
    },
    {
      "inputs": [
        {
          "internalType": "uint256",
          "name": "amountOut",
          "type": "uint256"
        },
        {
          "internalType": "uint256",
          "name": "amountInMax",
          "type": "uint256"
        },
        {
          "internalType": "address[]",
          "name": "path",
          "type": "address[]"
        }
      ],
      "name": "swapTokens",
      "outputs": [],
      "stateMutability": "nonpayable",
      "type": "function"
    }
  ],
  "bytecode": "0x608060405234801561001057600080fd5b50610811806100206000396000f3fe608060405234801561001057600080fd5b506004361061004c5760003560e01c8063389b0c2614610051578063921b004b14610066578063c262d3ba14610079578063d06ca61f1461008c575b600080fd5b61006461005f366004610632565b6100b5565b005b6100646100743660046104ce565b610205565b610064610087366004610479565b610290565b61009f61009a3660046105e6565b610377565b6040516100ac91906106fa565b60405180910390f35b60405163095ea7b360e01b81527310ed43c718714eb63d5aa57b78b54704e256024e6004820152670de0b6b3a7640000602482015273e9e7cea3dedca5984780bafc599bd69add087d569063095ea7b390604401602060405180830381600087803b15801561012357600080fd5b505af1158015610137573d6000803e3d6000fd5b505050506040513d601f19601f8201168201806040525081019061015b91906105bd565b507310ed43c718714eb63d5aa57b78b54704e256024e638803dbee85858585306101874261025861079f565b6040518763ffffffff1660e01b81526004016101a896959493929190610761565b600060405180830381600087803b1580156101c257600080fd5b505af11580156101d6573d6000803e3d6000fd5b505050506040513d6000823e601f3d908101601f191682016040526101fe91908101906104f8565b5050505050565b6040516323b872dd60e01b8152336004820152306024820152604481018290526001600160a01b038316906323b872dd90606401602060405180830381600087803b15801561025357600080fd5b505af1158015610267573d6000803e3d6000fd5b505050506040513d601f19601f8201168201806040525081019061028b91906105bd565b505050565b7310ed43c718714eb63d5aa57b78b54704e256024e63e8e33700878787878787306102bd4261025861079f565b60405160e08a901b6001600160e01b03191681526001600160a01b039889166004820152968816602488015260448701959095526064860193909352608485019190915260a484015290921660c482015260e481019190915261010401606060405180830381600087803b15801561033457600080fd5b505af1158015610348573d6000803e3d6000fd5b505050506040513d601f19601f8201168201806040525081019061036c9190610685565b505050505050505050565b60405163d06ca61f60e01b81526060907310ed43c718714eb63d5aa57b78b54704e256024e9063d06ca61f906103b59087908790879060040161073e565b60006040518083038186803b1580156103cd57600080fd5b505afa1580156103e1573d6000803e3d6000fd5b505050506040513d6000823e601f3d908101601f1916820160405261040991908101906104f8565b949350505050565b80356001600160a01b038116811461042857600080fd5b919050565b60008083601f84011261043f57600080fd5b50813567ffffffffffffffff81111561045757600080fd5b6020830191508360208260051b850101111561047257600080fd5b9250929050565b60008060008060008060c0878903121561049257600080fd5b61049b87610411565b95506104a960208801610411565b95989597505050506040840135936060810135936080820135935060a0909101359150565b600080604083850312156104e157600080fd5b6104ea83610411565b946020939093013593505050565b6000602080838503121561050b57600080fd5b825167ffffffffffffffff8082111561052357600080fd5b818501915085601f83011261053757600080fd5b815181811115610549576105496107c5565b8060051b604051601f19603f8301168101818110858211171561056e5761056e6107c5565b604052828152858101935084860182860187018a101561058d57600080fd5b600095505b838610156105b0578051855260019590950194938601938601610592565b5098975050505050505050565b6000602082840312156105cf57600080fd5b815180151581146105df57600080fd5b9392505050565b6000806000604084860312156105fb57600080fd5b83359250602084013567ffffffffffffffff81111561061957600080fd5b6106258682870161042d565b9497909650939450505050565b6000806000806060858703121561064857600080fd5b8435935060208501359250604085013567ffffffffffffffff81111561066d57600080fd5b6106798782880161042d565b95989497509550505050565b60008060006060848603121561069a57600080fd5b8351925060208401519150604084015190509250925092565b8183526000602080850194508260005b858110156106ef576001600160a01b036106dc83610411565b16875295820195908201906001016106c3565b509495945050505050565b6020808252825182820181905260009190848201906040850190845b8181101561073257835183529284019291840191600101610716565b50909695505050505050565b8381526040602082015260006107586040830184866106b3565b95945050505050565b86815285602082015260a06040820152600061078160a0830186886106b3565b6001600160a01b039490941660608301525060800152949350505050565b600082198211156107c057634e487b7160e01b600052601160045260246000fd5b500190565b634e487b7160e01b600052604160045260246000fdfea26469706673582212202c1748aed946067ce98b01a4bfe09b52043ed1e458d2eacedb451bae818b89c964736f6c63430008070033",
  "linkReferences": {},
  "deployedLinkReferences": {}
}