{
  "_format": "hh-sol-artifact-1",
  "contractName": "StrategyBNB",
  "sourceName": "contracts/StrategyBNB.sol",
  "abi": [
    {
      "inputs": [
        {
          "internalType": "uint256[]",
          "name": "_protocolIds",
          "type": "uint256[]"
        },
        {
          "internalType": "address[]",
          "name": "_routers",
          "type": "address[]"
        },
        {
          "internalType": "address[]",
          "name": "_chefs",
          "type": "address[]"
        },
        {
          "internalType": "address[]",
          "name": "_rewardToken",
          "type": "address[]"
        },
        {
          "internalType": "address payable",
          "name": "_platformOwner",
          "type": "address"
        },
        {
          "internalType": "address payable",
          "name": "_referrer",
          "type": "address"
        },
        {
          "internalType": "address payable",
          "name": "_controllerWallet",
          "type": "address"
        },
        {
          "internalType": "address payable",
          "name": "_feeWallet",
          "type": "address"
        },
        {
          "internalType": "address payable",
          "name": "_charityWallet",
          "type": "address"
        },
        {
          "internalType": "address payable",
          "name": "_stakingWallet",
          "type": "address"
        },
        {
          "internalType": "address payable",
          "name": "_proWallet",
          "type": "address"
        }
      ],
      "stateMutability": "nonpayable",
      "type": "constructor"
    },
    {
      "anonymous": false,
      "inputs": [
        {
          "indexed": true,
          "internalType": "uint256",
          "name": "_protocolID",
          "type": "uint256"
        },
        {
          "indexed": true,
          "internalType": "uint256",
          "name": "_farmID",
          "type": "uint256"
        }
      ],
      "name": "DepositedToFarm",
      "type": "event"
    },
    {
      "anonymous": false,
      "inputs": [
        {
          "indexed": true,
          "internalType": "address",
          "name": "_userAddress",
          "type": "address"
        },
        {
          "indexed": true,
          "internalType": "address",
          "name": "_tokenAddress",
          "type": "address"
        },
        {
          "indexed": false,
          "internalType": "uint256",
          "name": "_amount",
          "type": "uint256"
        },
        {
          "indexed": false,
          "internalType": "uint256",
          "name": "_feeAmount",
          "type": "uint256"
        }
      ],
      "name": "ETHDeposited",
      "type": "event"
    },
    {
      "anonymous": false,
      "inputs": [
        {
          "indexed": true,
          "internalType": "address",
          "name": "userAddress",
          "type": "address"
        },
        {
          "indexed": false,
          "internalType": "uint256",
          "name": "amount",
          "type": "uint256"
        }
      ],
      "name": "FeeCollected",
      "type": "event"
    },
    {
      "anonymous": false,
      "inputs": [
        {
          "indexed": true,
          "internalType": "address",
          "name": "_userAddress",
          "type": "address"
        },
        {
          "indexed": true,
          "internalType": "address",
          "name": "_tokenAddress",
          "type": "address"
        },
        {
          "indexed": false,
          "internalType": "uint256",
          "name": "_amount",
          "type": "uint256"
        },
        {
          "indexed": false,
          "internalType": "uint256",
          "name": "_feeAmount",
          "type": "uint256"
        }
      ],
      "name": "FundsDeposited",
      "type": "event"
    },
    {
      "anonymous": false,
      "inputs": [
        {
          "indexed": true,
          "internalType": "address",
          "name": "_userAddress",
          "type": "address"
        },
        {
          "indexed": true,
          "internalType": "address",
          "name": "_tokenAddress",
          "type": "address"
        },
        {
          "indexed": false,
          "internalType": "uint256",
          "name": "_amount",
          "type": "uint256"
        }
      ],
      "name": "FundsWithdrawn",
      "type": "event"
    },
    {
      "anonymous": false,
      "inputs": [
        {
          "indexed": true,
          "internalType": "address",
          "name": "_userAddress",
          "type": "address"
        },
        {
          "indexed": false,
          "internalType": "uint256",
          "name": "_amount",
          "type": "uint256"
        }
      ],
      "name": "FundsWithdrawnETH",
      "type": "event"
    },
    {
      "anonymous": false,
      "inputs": [
        {
          "indexed": true,
          "internalType": "uint256",
          "name": "_protocolID",
          "type": "uint256"
        },
        {
          "indexed": true,
          "internalType": "uint256",
          "name": "_farmID",
          "type": "uint256"
        }
      ],
      "name": "withdrawnFromFarm",
      "type": "event"
    },
    {
      "stateMutability": "payable",
      "type": "fallback"
    },
    {
      "inputs": [
        {
          "internalType": "uint256",
          "name": "_protocolId",
          "type": "uint256"
        },
        {
          "internalType": "address",
          "name": "_tokenA",
          "type": "address"
        },
        {
          "internalType": "address",
          "name": "_tokenB",
          "type": "address"
        },
        {
          "internalType": "uint256",
          "name": "_amountADesired",
          "type": "uint256"
        },
        {
          "internalType": "uint256",
          "name": "_amountBDesired",
          "type": "uint256"
        },
        {
          "internalType": "uint256",
          "name": "_amountAMin",
          "type": "uint256"
        },
        {
          "internalType": "uint256",
          "name": "_amountBMin",
          "type": "uint256"
        }
      ],
      "name": "addLiquidity",
      "outputs": [],
      "stateMutability": "nonpayable",
      "type": "function"
    },
    {
      "inputs": [
        {
          "internalType": "uint256",
          "name": "_protocolId",
          "type": "uint256"
        },
        {
          "internalType": "address",
          "name": "_token",
          "type": "address"
        },
        {
          "internalType": "uint256",
          "name": "_amountTokenDesired",
          "type": "uint256"
        },
        {
          "internalType": "uint256",
          "name": "_amountETHDesired",
          "type": "uint256"
        },
        {
          "internalType": "uint256",
          "name": "_amountTokenMin",
          "type": "uint256"
        },
        {
          "internalType": "uint256",
          "name": "_amountETHMin",
          "type": "uint256"
        }
      ],
      "name": "addLiquidityETH",
      "outputs": [],
      "stateMutability": "payable",
      "type": "function"
    },
    {
      "inputs": [],
      "name": "charityWallet",
      "outputs": [
        {
          "internalType": "address payable",
          "name": "",
          "type": "address"
        }
      ],
      "stateMutability": "view",
      "type": "function"
    },
    {
      "inputs": [],
      "name": "controllerWallet",
      "outputs": [
        {
          "internalType": "address payable",
          "name": "",
          "type": "address"
        }
      ],
      "stateMutability": "view",
      "type": "function"
    },
    {
      "inputs": [
        {
          "internalType": "address",
          "name": "_tokenAddress",
          "type": "address"
        },
        {
          "internalType": "uint256",
          "name": "_amount",
          "type": "uint256"
        },
        {
          "internalType": "uint256",
          "name": "_entranceFee",
          "type": "uint256"
        }
      ],
      "name": "depositFunds",
      "outputs": [],
      "stateMutability": "nonpayable",
      "type": "function"
    },
    {
      "inputs": [
        {
          "internalType": "address",
          "name": "_tokenAddress",
          "type": "address"
        },
        {
          "internalType": "uint256",
          "name": "_amount",
          "type": "uint256"
        },
        {
          "internalType": "uint256",
          "name": "_entranceFee",
          "type": "uint256"
        }
      ],
      "name": "depositFundsETH",
      "outputs": [],
      "stateMutability": "payable",
      "type": "function"
    },
    {
      "inputs": [
        {
          "internalType": "uint256",
          "name": "_protocolId",
          "type": "uint256"
        },
        {
          "internalType": "address",
          "name": "_lpTokenAddress",
          "type": "address"
        },
        {
          "internalType": "uint256",
          "name": "_poolId",
          "type": "uint256"
        },
        {
          "internalType": "uint256",
          "name": "_amount",
          "type": "uint256"
        }
      ],
      "name": "depositToFarm",
      "outputs": [],
      "stateMutability": "nonpayable",
      "type": "function"
    },
    {
      "inputs": [
        {
          "internalType": "uint256",
          "name": "_protocolId",
          "type": "uint256"
        },
        {
          "internalType": "uint256",
          "name": "_poolId",
          "type": "uint256"
        }
      ],
      "name": "emergencyWithdraw",
      "outputs": [],
      "stateMutability": "nonpayable",
      "type": "function"
    },
    {
      "inputs": [
        {
          "internalType": "uint256",
          "name": "",
          "type": "uint256"
        }
      ],
      "name": "factoryAddress",
      "outputs": [
        {
          "internalType": "address",
          "name": "",
          "type": "address"
        }
      ],
      "stateMutability": "view",
      "type": "function"
    },
    {
      "inputs": [],
      "name": "feeWallet",
      "outputs": [
        {
          "internalType": "address payable",
          "name": "",
          "type": "address"
        }
      ],
      "stateMutability": "view",
      "type": "function"
    },
    {
      "inputs": [],
      "name": "lastEntranceFee",
      "outputs": [
        {
          "internalType": "uint256",
          "name": "",
          "type": "uint256"
        }
      ],
      "stateMutability": "view",
      "type": "function"
    },
    {
      "inputs": [],
      "name": "lastFeePercantege",
      "outputs": [
        {
          "internalType": "uint256",
          "name": "",
          "type": "uint256"
        }
      ],
      "stateMutability": "view",
      "type": "function"
    },
    {
      "inputs": [
        {
          "internalType": "uint256",
          "name": "",
          "type": "uint256"
        }
      ],
      "name": "masterchefAddress",
      "outputs": [
        {
          "internalType": "address",
          "name": "",
          "type": "address"
        }
      ],
      "stateMutability": "view",
      "type": "function"
    },
    {
      "inputs": [],
      "name": "owner",
      "outputs": [
        {
          "internalType": "address payable",
          "name": "",
          "type": "address"
        }
      ],
      "stateMutability": "view",
      "type": "function"
    },
    {
      "inputs": [],
      "name": "platformOwner",
      "outputs": [
        {
          "internalType": "address payable",
          "name": "",
          "type": "address"
        }
      ],
      "stateMutability": "view",
      "type": "function"
    },
    {
      "inputs": [],
      "name": "proWallet",
      "outputs": [
        {
          "internalType": "address payable",
          "name": "",
          "type": "address"
        }
      ],
      "stateMutability": "view",
      "type": "function"
    },
    {
      "inputs": [],
      "name": "referrer",
      "outputs": [
        {
          "internalType": "address payable",
          "name": "",
          "type": "address"
        }
      ],
      "stateMutability": "view",
      "type": "function"
    },
    {
      "inputs": [
        {
          "internalType": "uint256",
          "name": "_protocolId",
          "type": "uint256"
        },
        {
          "internalType": "address",
          "name": "_tokenA",
          "type": "address"
        },
        {
          "internalType": "address",
          "name": "_tokenB",
          "type": "address"
        },
        {
          "internalType": "uint256",
          "name": "_liquidity",
          "type": "uint256"
        },
        {
          "internalType": "uint256",
          "name": "_amountAMin",
          "type": "uint256"
        },
        {
          "internalType": "uint256",
          "name": "_amountBMin",
          "type": "uint256"
        }
      ],
      "name": "removeLiquidity",
      "outputs": [],
      "stateMutability": "nonpayable",
      "type": "function"
    },
    {
      "inputs": [
        {
          "internalType": "uint256",
          "name": "_protocolId",
          "type": "uint256"
        },
        {
          "internalType": "address",
          "name": "_token",
          "type": "address"
        },
        {
          "internalType": "address",
          "name": "_lpToken",
          "type": "address"
        },
        {
          "internalType": "uint256",
          "name": "_liquidity",
          "type": "uint256"
        },
        {
          "internalType": "uint256",
          "name": "_amountTokenMin",
          "type": "uint256"
        },
        {
          "internalType": "uint256",
          "name": "_amountETHMin",
          "type": "uint256"
        }
      ],
      "name": "removeLiquidityETH",
      "outputs": [],
      "stateMutability": "nonpayable",
      "type": "function"
    },
    {
      "inputs": [
        {
          "internalType": "uint256",
          "name": "",
          "type": "uint256"
        }
      ],
      "name": "rewardTokenAddress",
      "outputs": [
        {
          "internalType": "address",
          "name": "",
          "type": "address"
        }
      ],
      "stateMutability": "view",
      "type": "function"
    },
    {
      "inputs": [
        {
          "internalType": "uint256",
          "name": "",
          "type": "uint256"
        }
      ],
      "name": "routerAddress",
      "outputs": [
        {
          "internalType": "address",
          "name": "",
          "type": "address"
        }
      ],
      "stateMutability": "view",
      "type": "function"
    },
    {
      "inputs": [
        {
          "internalType": "address payable",
          "name": "_platformOnwer",
          "type": "address"
        }
      ],
      "name": "setPlatformOwner",
      "outputs": [],
      "stateMutability": "nonpayable",
      "type": "function"
    },
    {
      "inputs": [],
      "name": "stakingWallet",
      "outputs": [
        {
          "internalType": "address payable",
          "name": "",
          "type": "address"
        }
      ],
      "stateMutability": "view",
      "type": "function"
    },
    {
      "inputs": [
        {
          "internalType": "uint256",
          "name": "_protocolId",
          "type": "uint256"
        },
        {
          "internalType": "uint256",
          "name": "_amountIn",
          "type": "uint256"
        },
        {
          "internalType": "uint256",
          "name": "_amountOutMin",
          "type": "uint256"
        },
        {
          "internalType": "address[]",
          "name": "_path",
          "type": "address[]"
        }
      ],
      "name": "swapExactETHforToken",
      "outputs": [
        {
          "internalType": "uint256[]",
          "name": "amounts",
          "type": "uint256[]"
        }
      ],
      "stateMutability": "nonpayable",
      "type": "function"
    },
    {
      "inputs": [
        {
          "internalType": "uint256",
          "name": "_protocolId",
          "type": "uint256"
        },
        {
          "internalType": "address",
          "name": "_token",
          "type": "address"
        },
        {
          "internalType": "uint256",
          "name": "_amountIn",
          "type": "uint256"
        },
        {
          "internalType": "uint256",
          "name": "_amountOutMin",
          "type": "uint256"
        },
        {
          "internalType": "address[]",
          "name": "_path",
          "type": "address[]"
        }
      ],
      "name": "swapExactTokenforToken",
      "outputs": [
        {
          "internalType": "uint256[]",
          "name": "amounts",
          "type": "uint256[]"
        }
      ],
      "stateMutability": "nonpayable",
      "type": "function"
    },
    {
      "inputs": [
        {
          "internalType": "uint256",
          "name": "_protocolId",
          "type": "uint256"
        },
        {
          "internalType": "address",
          "name": "_token",
          "type": "address"
        },
        {
          "internalType": "uint256",
          "name": "_amountIn",
          "type": "uint256"
        },
        {
          "internalType": "uint256",
          "name": "_amountOutMin",
          "type": "uint256"
        },
        {
          "internalType": "address[]",
          "name": "_path",
          "type": "address[]"
        }
      ],
      "name": "swapExactTokensForETH",
      "outputs": [
        {
          "internalType": "uint256[]",
          "name": "amounts",
          "type": "uint256[]"
        }
      ],
      "stateMutability": "nonpayable",
      "type": "function"
    },
    {
      "inputs": [
        {
          "internalType": "address",
          "name": "user",
          "type": "address"
        }
      ],
      "name": "toggleDepositLock",
      "outputs": [],
      "stateMutability": "nonpayable",
      "type": "function"
    },
    {
      "inputs": [
        {
          "internalType": "uint256",
          "name": "",
          "type": "uint256"
        }
      ],
      "name": "tokenDeposited",
      "outputs": [
        {
          "internalType": "address",
          "name": "",
          "type": "address"
        }
      ],
      "stateMutability": "view",
      "type": "function"
    },
    {
      "inputs": [],
      "name": "tokenDepositedLength",
      "outputs": [
        {
          "internalType": "uint256",
          "name": "length",
          "type": "uint256"
        }
      ],
      "stateMutability": "view",
      "type": "function"
    },
    {
      "inputs": [
        {
          "internalType": "address",
          "name": "",
          "type": "address"
        }
      ],
      "name": "userLocked",
      "outputs": [
        {
          "internalType": "bool",
          "name": "",
          "type": "bool"
        }
      ],
      "stateMutability": "view",
      "type": "function"
    },
    {
      "inputs": [
        {
          "components": [
            {
              "internalType": "uint256",
              "name": "_protocolId",
              "type": "uint256"
            },
            {
              "internalType": "uint256",
              "name": "_poolId",
              "type": "uint256"
            },
            {
              "internalType": "uint256",
              "name": "_amount",
              "type": "uint256"
            },
            {
              "internalType": "uint256",
              "name": "_controllerFee",
              "type": "uint256"
            },
            {
              "internalType": "uint256",
              "name": "_protocolFee",
              "type": "uint256"
            },
            {
              "internalType": "uint256",
              "name": "_proFee",
              "type": "uint256"
            },
            {
              "internalType": "uint256",
              "name": "_referrerFee",
              "type": "uint256"
            },
            {
              "internalType": "uint256",
              "name": "_charityFee",
              "type": "uint256"
            },
            {
              "internalType": "uint256",
              "name": "_stakingFee",
              "type": "uint256"
            }
          ],
          "internalType": "struct StrategyBNB.withdrawFromFarmStruct",
          "name": "withdrawStruct",
          "type": "tuple"
        }
      ],
      "name": "withdrawFromFarm",
      "outputs": [
        {
          "internalType": "uint256",
          "name": "amountAfterFees",
          "type": "uint256"
        }
      ],
      "stateMutability": "nonpayable",
      "type": "function"
    },
    {
      "inputs": [
        {
          "internalType": "address",
          "name": "_tokenAddress",
          "type": "address"
        },
        {
          "internalType": "uint256",
          "name": "_amount",
          "type": "uint256"
        }
      ],
      "name": "withdrawFunds",
      "outputs": [],
      "stateMutability": "nonpayable",
      "type": "function"
    },
    {
      "inputs": [
        {
          "internalType": "uint256",
          "name": "_amount",
          "type": "uint256"
        }
      ],
      "name": "withdrawFundsETH",
      "outputs": [],
      "stateMutability": "nonpayable",
      "type": "function"
    },
    {
      "stateMutability": "payable",
      "type": "receive"
    }
  ],
  "bytecode": "0x60806040523480156200001157600080fd5b506040516200303e3803806200303e833981016040819052620000349162000423565b89518b5114801562000047575088518b51145b801562000055575087518b51145b620000a65760405162461bcd60e51b815260206004820152601b60248201527f506172616d6574657273206e6f7420657175616c206c656e6774680000000000604482015260640160405180910390fd5b60005b8b5181101562000216578a8181518110620000c857620000c862000578565b60200260200101516000808e8481518110620000e857620000e862000578565b6020026020010151815260200190815260200160002060006101000a8154816001600160a01b0302191690836001600160a01b0316021790555089818151811062000137576200013762000578565b6020026020010151600260008e848151811062000158576200015862000578565b6020026020010151815260200190815260200160002060006101000a8154816001600160a01b0302191690836001600160a01b03160217905550888181518110620001a757620001a762000578565b6020026020010151600360008e8481518110620001c857620001c862000578565b6020026020010151815260200190815260200160002060006101000a8154816001600160a01b0302191690836001600160a01b03160217905550806200020e906200058e565b9050620000a9565b5060068054336001600160a01b0319918216179091556009805482166001600160a01b03998a16179055600a805482169789169790971790965560078054871694881694909417909355600b8054861692871692909217909155600d8054851692861692909217909155600c8054841691851691909117905560088054909216921691909117905550620005b692505050565b634e487b7160e01b600052604160045260246000fd5b604051601f8201601f191681016001600160401b0381118282101715620002ea57620002ea620002a9565b604052919050565b60006001600160401b038211156200030e576200030e620002a9565b5060051b60200190565b600082601f8301126200032a57600080fd5b81516020620003436200033d83620002f2565b620002bf565b82815260059290921b840181019181810190868411156200036357600080fd5b8286015b8481101562000380578051835291830191830162000367565b509695505050505050565b6001600160a01b0381168114620003a157600080fd5b50565b600082601f830112620003b657600080fd5b81516020620003c96200033d83620002f2565b82815260059290921b84018101918181019086841115620003e957600080fd5b8286015b848110156200038057805162000403816200038b565b8352918301918301620003ed565b80516200041e816200038b565b919050565b60008060008060008060008060008060006101608c8e0312156200044657600080fd5b8b516001600160401b038111156200045d57600080fd5b6200046b8e828f0162000318565b60208e0151909c5090506001600160401b038111156200048a57600080fd5b620004988e828f01620003a4565b60408e0151909b5090506001600160401b03811115620004b757600080fd5b620004c58e828f01620003a4565b60608e0151909a5090506001600160401b03811115620004e457600080fd5b620004f28e828f01620003a4565b9850506200050360808d0162000411565b96506200051360a08d0162000411565b95506200052360c08d0162000411565b94506200053360e08d0162000411565b9350620005446101008d0162000411565b9250620005556101208d0162000411565b9150620005666101408d0162000411565b90509295989b509295989b9093969950565b634e487b7160e01b600052603260045260246000fd5b600060018201620005af57634e487b7160e01b600052601160045260246000fd5b5060010190565b612a7880620005c66000396000f3fe6080604052600436106101d95760003560e01c806368447c93116101015780639a3771a31161009a578063ae1975dc1161006c578063ae1975dc146105b9578063bba05384146105d9578063c107532914610619578063e02367b414610639578063f25f4b561461065957005b80639a3771a31461050d578063a044032714610543578063a66a735e14610579578063ab00c43e1461059957005b80638da5cb5b116100d35780638da5cb5b1461048d5780638e9068e6146104ad578063961095c5146104cd5780639920dedb146104ed57005b806368447c931461041a5780637039c24a1461043a5780637b2087691461044d57806389189cb81461046d57005b80634bfe642d116101735780635930a0a1116101455780635930a0a1146103775780635bb7ae60146103ad57806364481e25146103da57806366551c25146103fa57005b80634bfe642d146103025780634df8ccb11461032257806354daabc31461034257806356264e321461036257005b80631beed26c116101ac5780631beed26c146102995780631f276b6e146102b95780633db9a65e146102d957806344e54487146102ef57005b80620c9fd5146101e2578063050915b21461023557806306ee6ad8146102595780630fc6b7131461027957005b366101e057005b005b3480156101ee57600080fd5b506102186101fd3660046123a6565b6001602052600090815260409020546001600160a01b031681565b6040516001600160a01b0390911681526020015b60405180910390f35b34801561024157600080fd5b5061024b60055481565b60405190815260200161022c565b34801561026557600080fd5b50600c54610218906001600160a01b031681565b34801561028557600080fd5b506101e06102943660046123d7565b610679565b3480156102a557600080fd5b506101e06102b436600461240c565b6108e8565b3480156102c557600080fd5b506101e06102d4366004612471565b610ae5565b3480156102e557600080fd5b5061024b60045481565b6101e06102fd3660046123d7565b610b6b565b34801561030e57600080fd5b50600d54610218906001600160a01b031681565b34801561032e57600080fd5b50600954610218906001600160a01b031681565b34801561034e57600080fd5b506101e061035d366004612493565b610ccd565b34801561036e57600080fd5b50600e5461024b565b34801561038357600080fd5b506102186103923660046123a6565b6003602052600090815260409020546001600160a01b031681565b3480156103b957600080fd5b506103cd6103c8366004612503565b610d06565b60405161022c9190612576565b3480156103e657600080fd5b506103cd6103f5366004612503565b610e46565b34801561040657600080fd5b506103cd6104153660046125ba565b610f13565b34801561042657600080fd5b50600a54610218906001600160a01b031681565b6101e061044836600461261b565b610fcc565b34801561045957600080fd5b50600b54610218906001600160a01b031681565b34801561047957600080fd5b506101e06104883660046123a6565b611106565b34801561049957600080fd5b50600654610218906001600160a01b031681565b3480156104b957600080fd5b506101e06104c8366004612493565b611190565b3480156104d957600080fd5b506101e06104e836600461266b565b6111d0565b3480156104f957600080fd5b50600854610218906001600160a01b031681565b34801561051957600080fd5b506102186105283660046123a6565b6000602081905290815260409020546001600160a01b031681565b34801561054f57600080fd5b5061021861055e3660046123a6565b6002602052600090815260409020546001600160a01b031681565b34801561058557600080fd5b506101e06105943660046126c7565b6112b7565b3480156105a557600080fd5b506102186105b43660046123a6565b6113c1565b3480156105c557600080fd5b506101e06105d436600461266b565b6113eb565b3480156105e557600080fd5b506106096105f4366004612493565b600f6020526000908152604090205460ff1681565b604051901515815260200161022c565b34801561062557600080fd5b506101e0610634366004612704565b6114d6565b34801561064557600080fd5b5061024b610654366004612730565b6115a7565b34801561066557600080fd5b50600754610218906001600160a01b031681565b6006546001600160a01b0316331461069057600080fd5b600082116106e05760405162461bcd60e51b815260206004820152601860248201527704572726f723a20616d6f756e742063616e277420626520360441b60448201526064015b60405180910390fd5b336000908152600f602052604090205460ff16156107365760405162461bcd60e51b8152602060048201526013602482015272155cd95c8818d85b9b9bdd0819195c1bdcda5d606a1b60448201526064016106d7565b6040516323b872dd60e01b8152336004820152306024820152604481018390526001600160a01b038416906323b872dd906064016020604051808303816000875af1158015610789573d6000803e3d6000fd5b505050506040513d601f19601f820116820180604052508101906107ad9190612749565b50600e805460018101825560009182527fbb7b4a454dc3493923482f07822329ed19e8244eff582cc204f8554c3620c3fd0180546001600160a01b0319166001600160a01b0386161790558161080561271085612781565b61080f91906127a3565b9050600061081d82856127c2565b60085460405163a9059cbb60e01b81529192506001600160a01b038088169263a9059cbb9261085292169086906004016127d9565b6020604051808303816000875af1158015610871573d6000803e3d6000fd5b505050506040513d601f19601f820116820180604052508101906108959190612749565b5060065460408051838152602081018590526001600160a01b038881169316917f6427e0cea551d11a873721f5e4eb2e5ad031fca4c7b31e95a697ca91b8bd1feb91015b60405180910390a35050505050565b6009546001600160a01b031633146108ff57600080fd5b6000878152602081905260409081902054905163095ea7b360e01b81526001600160a01b038881169263095ea7b392610940929091169088906004016127d9565b6020604051808303816000875af115801561095f573d6000803e3d6000fd5b505050506040513d601f19601f820116820180604052508101906109839190612749565b506000878152602081905260409081902054905163095ea7b360e01b81526001600160a01b038781169263095ea7b3926109c5929091169087906004016127d9565b6020604051808303816000875af11580156109e4573d6000803e3d6000fd5b505050506040513d601f19601f82011682018060405250810190610a089190612749565b506000878152602081905260409020546001600160a01b031663e8e3370087878787878730610a39426102586127f2565b60405160e08a901b6001600160e01b03191681526001600160a01b039889166004820152968816602488015260448701959095526064860193909352608485019190915260a484015290921660c482015260e4810191909152610104016060604051808303816000875af1158015610ab5573d6000803e3d6000fd5b505050506040513d601f19601f82011682018060405250810190610ad9919061280a565b50505050505050505050565b6009546001600160a01b03163314610afc57600080fd5b60008281526002602052604090819020549051632989754760e11b8152600481018390526001600160a01b0390911690635312ea8e90602401600060405180830381600087803b158015610b4f57600080fd5b505af1158015610b63573d6000803e3d6000fd5b505050505050565b6006546001600160a01b03163314610b8257600080fd5b60008211610bcd5760405162461bcd60e51b815260206004820152601860248201527704572726f723a20616d6f756e742063616e277420626520360441b60448201526064016106d7565b336000908152600f602052604090205460ff1615610c235760405162461bcd60e51b8152602060048201526013602482015272155cd95c8818d85b9b9bdd0819195c1bdcda5d606a1b60448201526064016106d7565b600081610c3261271085612781565b610c3c91906127a3565b90506000610c4a82856127c2565b6008546040519192506001600160a01b03169083156108fc029084906000818181858888f19350505050158015610c85573d6000803e3d6000fd5b5060065460408051838152602081018590526001600160a01b038881169316917f142820add0a5d3e5ad3b4bf87784c72bd6b7767da6abad3ce6f8605f7624304291016108d9565b6009546001600160a01b03163314610ce457600080fd5b600980546001600160a01b0319166001600160a01b0392909216919091179055565b6009546060906001600160a01b03163314610d2057600080fd5b6000878152602081905260409081902054905163095ea7b360e01b81526001600160a01b038881169263095ea7b392610d61929091169089906004016127d9565b6020604051808303816000875af1158015610d80573d6000803e3d6000fd5b505050506040513d601f19601f82011682018060405250810190610da49190612749565b506000878152602081905260409020546001600160a01b03166318cbafe58686868630610dd3426102586127f2565b6040518763ffffffff1660e01b8152600401610df496959493929190612881565b6000604051808303816000875af1158015610e13573d6000803e3d6000fd5b505050506040513d6000823e601f3d908101601f19168201604052610e3b91908101906128d5565b979650505050505050565b6009546060906001600160a01b03163314610e6057600080fd5b6000878152602081905260409081902054905163095ea7b360e01b81526001600160a01b038881169263095ea7b392610ea1929091169089906004016127d9565b6020604051808303816000875af1158015610ec0573d6000803e3d6000fd5b505050506040513d601f19601f82011682018060405250810190610ee49190612749565b506000878152602081905260409020546001600160a01b03166338ed17398686868630610dd3426102586127f2565b6009546060906001600160a01b03163314610f2d57600080fd5b6000868152602081905260409020546001600160a01b0316637ff36ab58686868630610f5b426102586127f2565b6040518763ffffffff1660e01b8152600401610f7b959493929190612993565b60006040518083038185885af1158015610f99573d6000803e3d6000fd5b50505050506040513d6000823e601f3d908101601f19168201604052610fc291908101906128d5565b9695505050505050565b6009546001600160a01b03163314610fe357600080fd5b6000868152602081905260409081902054905163095ea7b360e01b81526001600160a01b038781169263095ea7b392611024929091169088906004016127d9565b6020604051808303816000875af1158015611043573d6000803e3d6000fd5b505050506040513d601f19601f820116820180604052508101906110679190612749565b506000868152602081905260409020546001600160a01b031663f305d719848787868630611097426102586127f2565b6040518863ffffffff1660e01b81526004016110b8969594939291906129ca565b60606040518083038185885af11580156110d6573d6000803e3d6000fd5b50505050506040513d601f19601f820116820180604052508101906110fb919061280a565b505050505050505050565b6006546001600160a01b0316331461111d57600080fd5b604051339082156108fc029083906000818181858888f1935050505015801561114a573d6000803e3d6000fd5b506006546040518281526001600160a01b03909116907fe380c5053d453e29c6d6fa8b52f48bc3266a7bbd0f19004b711f53e5e9bd0f759060200160405180910390a250565b6009546001600160a01b031633146111a757600080fd5b6001600160a01b03166000908152600f60205260409020805460ff19811660ff90911615179055565b6009546001600160a01b031633146111e757600080fd5b6000868152602081905260409020546001600160a01b031663baa2abde868686868630611216426102586127f2565b60405160e089901b6001600160e01b03191681526001600160a01b039788166004820152958716602487015260448601949094526064850192909252608484015290921660a482015260c481019190915260e4015b60408051808303816000875af1158015611289573d6000803e3d6000fd5b505050506040513d601f19601f820116820180604052508101906112ad9190612a05565b5050505050505050565b6009546001600160a01b031633146112ce57600080fd5b6000848152600260205260409081902054905163095ea7b360e01b81526001600160a01b038581169263095ea7b39261130f929091169085906004016127d9565b6020604051808303816000875af115801561132e573d6000803e3d6000fd5b505050506040513d601f19601f820116820180604052508101906113529190612749565b5060008481526002602052604090819020549051631c57762b60e31b815260048101849052602481018390526001600160a01b039091169063e2bbb15890604401600060405180830381600087803b1580156113ad57600080fd5b505af11580156112ad573d6000803e3d6000fd5b600e81815481106113d157600080fd5b6000918252602090912001546001600160a01b0316905081565b6009546001600160a01b0316331461140257600080fd5b6000868152602081905260409081902054905163095ea7b360e01b81526001600160a01b038681169263095ea7b392611443929091169087906004016127d9565b6020604051808303816000875af1158015611462573d6000803e3d6000fd5b505050506040513d601f19601f820116820180604052508101906114869190612749565b506000868152602081905260409020546001600160a01b03166302751cec86858585306114b5426102586127f2565b6040518763ffffffff1660e01b815260040161126b969594939291906129ca565b6006546001600160a01b031633146114ed57600080fd5b60405163a9059cbb60e01b81526001600160a01b0383169063a9059cbb9061151b90339085906004016127d9565b6020604051808303816000875af115801561153a573d6000803e3d6000fd5b505050506040513d601f19601f8201168201806040525081019061155e9190612749565b506006546040518281526001600160a01b038481169216907fa92ff919b850e4909ab2261d907ef955f11bc1716733a6cbece38d163a69af8a9060200160405180910390a35050565b6009546000906001600160a01b031633146115c157600080fd5b600082356002036116595782356000908152600260209081526040918290205491516303400a6560e01b81529085013560048201523060248201526001600160a01b03909116906303400a6590604401602060405180830381865afa15801561162e573d6000803e3d6000fd5b505050506040513d601f19601f820116820180604052508101906116529190612a29565b90506116e2565b8235600090815260026020908152604091829020549151631175a1dd60e01b81529085013560048201523060248201526001600160a01b0390911690631175a1dd90604401602060405180830381865afa1580156116bb573d6000803e3d6000fd5b505050506040513d601f19601f820116820180604052508101906116df9190612a29565b90505b8235600090815260026020908152604091829020548251630441a3e760e41b81529186013560048301529185013560248201526001600160a01b039091169063441a3e7090604401600060405180830381600087803b15801561174457600080fd5b505af1158015611758573d6000803e3d6000fd5b50600092505050606084013561177061271084612781565b61177a91906127a3565b84356000908152600360205260409081902054600854915163a9059cbb60e01b81529293506001600160a01b039081169263a9059cbb926117c192169085906004016127d9565b6020604051808303816000875af11580156117e0573d6000803e3d6000fd5b505050506040513d601f19601f820116820180604052508101906118049190612749565b50600061181182846127c2565b600d549091506001600160a01b0316600003611d0c576000608086013561183a61271084612781565b61184491906127a3565b905061185081836127c2565b600a549092506001600160a01b0316600003611a5e57600060e087013561187961271084612781565b61188391906127a3565b9050600061010088013561189961271085612781565b6118a391906127a3565b9050806118b083856127c2565b6118ba91906127c2565b88356000908152600360205260409081902054600754915163a9059cbb60e01b81529295506001600160a01b039081169263a9059cbb9261190192169087906004016127d9565b6020604051808303816000875af1158015611920573d6000803e3d6000fd5b505050506040513d601f19601f820116820180604052508101906119449190612749565b5087356000908152600360205260409081902054600b54915163a9059cbb60e01b81526001600160a01b039182169263a9059cbb9261198a9291169086906004016127d9565b6020604051808303816000875af11580156119a9573d6000803e3d6000fd5b505050506040513d601f19601f820116820180604052508101906119cd9190612749565b5087356000908152600360205260409081902054600c54915163a9059cbb60e01b81526001600160a01b039182169263a9059cbb92611a139291169085906004016127d9565b6020604051808303816000875af1158015611a32573d6000803e3d6000fd5b505050506040513d601f19601f82011682018060405250810190611a569190612749565b505050611d06565b600060e0870135611a7161271084612781565b611a7b91906127a3565b90506000610100880135611a9161271085612781565b611a9b91906127a3565b9050600060c0890135611ab061271086612781565b611aba91906127a3565b90508082611ac885876127c2565b611ad291906127c2565b611adc91906127c2565b89356000908152600360205260409081902054600754915163a9059cbb60e01b81529296506001600160a01b039081169263a9059cbb92611b2392169088906004016127d9565b6020604051808303816000875af1158015611b42573d6000803e3d6000fd5b505050506040513d601f19601f82011682018060405250810190611b669190612749565b5088356000908152600360205260409081902054600b54915163a9059cbb60e01b81526001600160a01b039182169263a9059cbb92611bac9291169087906004016127d9565b6020604051808303816000875af1158015611bcb573d6000803e3d6000fd5b505050506040513d601f19601f82011682018060405250810190611bef9190612749565b5088356000908152600360205260409081902054600c54915163a9059cbb60e01b81526001600160a01b039182169263a9059cbb92611c359291169086906004016127d9565b6020604051808303816000875af1158015611c54573d6000803e3d6000fd5b505050506040513d601f19601f82011682018060405250810190611c789190612749565b5088356000908152600360205260409081902054600a54915163a9059cbb60e01b81526001600160a01b039182169263a9059cbb92611cbe9291169085906004016127d9565b6020604051808303816000875af1158015611cdd573d6000803e3d6000fd5b505050506040513d601f19601f82011682018060405250810190611d019190612749565b505050505b50612357565b60006080860135611d1f61271084612781565b611d2991906127a3565b9050611d3581836127c2565b600a549092506001600160a01b0316600003611ff857600060a0870135611d5e61271084612781565b611d6891906127a3565b9050611d7481836127c2565b87356000908152600360205260409081902054600d54915163a9059cbb60e01b81529294506001600160a01b039081169263a9059cbb92611dbb92169085906004016127d9565b6020604051808303816000875af1158015611dda573d6000803e3d6000fd5b505050506040513d601f19601f82011682018060405250810190611dfe9190612749565b50600060e0880135611e1261271085612781565b611e1c91906127a3565b90506000610100890135611e3261271086612781565b611e3c91906127a3565b905080611e4983866127c2565b611e5391906127c2565b89356000908152600360205260409081902054600754915163a9059cbb60e01b81529296506001600160a01b039081169263a9059cbb92611e9a92169088906004016127d9565b6020604051808303816000875af1158015611eb9573d6000803e3d6000fd5b505050506040513d601f19601f82011682018060405250810190611edd9190612749565b5088356000908152600360205260409081902054600b54915163a9059cbb60e01b81526001600160a01b039182169263a9059cbb92611f239291169086906004016127d9565b6020604051808303816000875af1158015611f42573d6000803e3d6000fd5b505050506040513d601f19601f82011682018060405250810190611f669190612749565b5088356000908152600360205260409081902054600c54915163a9059cbb60e01b81526001600160a01b039182169263a9059cbb92611fac9291169085906004016127d9565b6020604051808303816000875af1158015611fcb573d6000803e3d6000fd5b505050506040513d601f19601f82011682018060405250810190611fef9190612749565b50505050612355565b600060a087013561200b61271084612781565b61201591906127a3565b905061202181836127c2565b87356000908152600360205260409081902054600d54915163a9059cbb60e01b81529294506001600160a01b039081169263a9059cbb9261206892169085906004016127d9565b6020604051808303816000875af1158015612087573d6000803e3d6000fd5b505050506040513d601f19601f820116820180604052508101906120ab9190612749565b50600060e08801356120bf61271085612781565b6120c991906127a3565b905060006101008901356120df61271086612781565b6120e991906127a3565b9050600060c08a01356120fe61271087612781565b61210891906127a3565b9050808261211685886127c2565b61212091906127c2565b61212a91906127c2565b8a356000908152600360205260409081902054600754915163a9059cbb60e01b81529297506001600160a01b039081169263a9059cbb9261217192169089906004016127d9565b6020604051808303816000875af1158015612190573d6000803e3d6000fd5b505050506040513d601f19601f820116820180604052508101906121b49190612749565b5089356000908152600360205260409081902054600b54915163a9059cbb60e01b81526001600160a01b039182169263a9059cbb926121fa9291169087906004016127d9565b6020604051808303816000875af1158015612219573d6000803e3d6000fd5b505050506040513d601f19601f8201168201806040525081019061223d9190612749565b5089356000908152600360205260409081902054600c54915163a9059cbb60e01b81526001600160a01b039182169263a9059cbb926122839291169086906004016127d9565b6020604051808303816000875af11580156122a2573d6000803e3d6000fd5b505050506040513d601f19601f820116820180604052508101906122c69190612749565b5089356000908152600360205260409081902054600a54915163a9059cbb60e01b81526001600160a01b039182169263a9059cbb9261230c9291169085906004016127d9565b6020604051808303816000875af115801561232b573d6000803e3d6000fd5b505050506040513d601f19601f8201168201806040525081019061234f9190612749565b50505050505b505b60065460405182815291945084916001600160a01b03909116907f06c5efeff5c320943d265dc4e5f1af95ad523555ce0c1957e367dda5514572df9060200160405180910390a2505050919050565b6000602082840312156123b857600080fd5b5035919050565b6001600160a01b03811681146123d457600080fd5b50565b6000806000606084860312156123ec57600080fd5b83356123f7816123bf565b95602085013595506040909401359392505050565b600080600080600080600060e0888a03121561242757600080fd5b873596506020880135612439816123bf565b95506040880135612449816123bf565b969995985095966060810135965060808101359560a0820135955060c0909101359350915050565b6000806040838503121561248457600080fd5b50508035926020909101359150565b6000602082840312156124a557600080fd5b81356124b0816123bf565b9392505050565b60008083601f8401126124c957600080fd5b50813567ffffffffffffffff8111156124e157600080fd5b6020830191508360208260051b85010111156124fc57600080fd5b9250929050565b60008060008060008060a0878903121561251c57600080fd5b86359550602087013561252e816123bf565b94506040870135935060608701359250608087013567ffffffffffffffff81111561255857600080fd5b61256489828a016124b7565b979a9699509497509295939492505050565b6020808252825182820181905260009190848201906040850190845b818110156125ae57835183529284019291840191600101612592565b50909695505050505050565b6000806000806000608086880312156125d257600080fd5b853594506020860135935060408601359250606086013567ffffffffffffffff8111156125fe57600080fd5b61260a888289016124b7565b969995985093965092949392505050565b60008060008060008060c0878903121561263457600080fd5b863595506020870135612646816123bf565b95989597505050506040840135936060810135936080820135935060a0909101359150565b60008060008060008060c0878903121561268457600080fd5b863595506020870135612696816123bf565b945060408701356126a6816123bf565b959894975094956060810135955060808101359460a0909101359350915050565b600080600080608085870312156126dd57600080fd5b8435935060208501356126ef816123bf565b93969395505050506040820135916060013590565b6000806040838503121561271757600080fd5b8235612722816123bf565b946020939093013593505050565b6000610120828403121561274357600080fd5b50919050565b60006020828403121561275b57600080fd5b815180151581146124b057600080fd5b634e487b7160e01b600052601160045260246000fd5b60008261279e57634e487b7160e01b600052601260045260246000fd5b500490565b60008160001904831182151516156127bd576127bd61276b565b500290565b6000828210156127d4576127d461276b565b500390565b6001600160a01b03929092168252602082015260400190565b600082198211156128055761280561276b565b500190565b60008060006060848603121561281f57600080fd5b8351925060208401519150604084015190509250925092565b8183526000602080850194508260005b8581101561287657813561285b816123bf565b6001600160a01b031687529582019590820190600101612848565b509495945050505050565b86815285602082015260a0604082015260006128a160a083018688612838565b6001600160a01b039490941660608301525060800152949350505050565b634e487b7160e01b600052604160045260246000fd5b600060208083850312156128e857600080fd5b825167ffffffffffffffff8082111561290057600080fd5b818501915085601f83011261291457600080fd5b815181811115612926576129266128bf565b8060051b604051601f19603f8301168101818110858211171561294b5761294b6128bf565b60405291825284820192508381018501918883111561296957600080fd5b938501935b828510156129875784518452938501939285019261296e565b98975050505050505050565b8581526080602082015260006129ad608083018688612838565b6001600160a01b0394909416604083015250606001529392505050565b6001600160a01b039687168152602081019590955260408501939093526060840191909152909216608082015260a081019190915260c00190565b60008060408385031215612a1857600080fd5b505080516020909101519092909150565b600060208284031215612a3b57600080fd5b505191905056fea2646970667358221220fb032bfc6549c2c579052a1791a4c6cbd04f5d2762734daf48ef4b70616b50eb64736f6c634300080d0033",
  "linkReferences": {},
  "deployedLinkReferences": {}
}